:1009180000C000F900A400B000990092008200F81D
:100928000080009000400079002400300019001277
:0C093800000200780000001000FF00BF6B
:1007B400013DFF013E00013B0002400014013800EE
:1007C400015500C102012800104300140014001454
:1007D40000140014001400140014013C000137013B
:1007E40002250000C10502230000C10404310000F9
:1007F4000000013F0001270101531E014214023988
:100804000000C1000829001400140014001401544D
:0D0814000002210000C103C1010235019066
:100822000528E52864147005F5281203A10526E5BC
:100832002670020525641445257006F525F526D295
:10084200050524E52470020523FFAE23BE010ABF7D
:100852009007E4F523F524D204053AE53A7002053F
:1008620039640A45397006F539F53AD2000522E5B0
:100872002270020521B5360CE521B53507E4F521D4
:05088200F522D2032263
:10054A001208EB1208877F527E031209D712088716
:10055A00E47B717A02F9F812024B8F348E338D32B2
:10056A008C31120A327F017E001209D7300205123D
:10057A00000EC202300505C2051205FA300423C274
:10058A000475344075330D753203753100120887CE
:10059A00E47B717A02F9F812024B8F348E338D3272
:1005AA008C31300005C20012048D3003B8C203201A
:1005BA00011DD2017FFE7800EF08800123D8FD5289
:1005CA003D853D8043A08053A09F53A01F80963055
:1005DA000193C2017F017800EF08800123D8FD4210
:1005EA003D853D8043A08053A09F53A01F02056F05
:10000E00E538640D60030200A0F538E53764017031
:10001E001AF529752A14F52B752C14F52D752E1439
:10002E00F52F7530147537020201A2AE2DAF2E7C5E
:10003E00007D0A120239E5302FFBE52F3EFAAE297C
:10004E00AF2A120239E52C2FFFE52B3EFEC3EF9BA4
:10005E00EE9A4035E5306414452F602DE52A75F093
:10006E000AA4252CF553E52E75F00AA42530F54289
:10007E007F017801EF08800123D8FD423D853D8048
:10008E0043A08053A09F53A01FE4F554753701027F
:10009E0001A2E538640E701BF538F554F529752A62
:1000AE0014F52B752C14F52D752E14F52F753014A3
:1000BE000201A2C3E55494047480948040030201AB
:1000CE00A2E537640260030201A2E55524FEB40ADC
:1000DE000040030201999000F275F003A4C5832538
:1000EE00F0C5837302011002014702017102011D66
:1000FE0002015502017F02012B02016302018D02F2
:10010E000139E55425E02429F8E4F608F6807CE56B
:10011E005425E02429F87600087603806EE55425F0
:10012E00E02429F876000876068060E55425E02460
:10013E0029F876000876098052E55425E02429F83E
:10014E0076000876018044E55425E02429F87600EF
:10015E000876048036E55425E02429F876000876E2
:10016E00078028E55425E02429F8760008760280D9
:10017E001AE55425E02429F87600087605800CE56A
:10018E005425E02429F87600087608E55560020526
:10019E0054E4F555E55464046003020238E537640F
:1001AE00026003020238AE2DAF2EFC7D0A12023918
:1001BE00E5302FFBE52F3EFAAE29AF2A120239E5C4
:1001CE002C2FFFE52B3EFEC3EF9BEE9A4021E53030
:1001DE006414452F60197F017801EF08800123D840
:1001EE00FD423D853D8043A08053A09F53A01FAE8E
:1001FE0029AF2A7C007D0A120239E52C2FFFE52B50
:10020E003EFEC3EF9BEE9A5021E5306414452F60FD
:10021E00197FFE7801EF08800123D8FD523D853D00
:0B022E008043A08053A09F53A01F221C
:1005FA00E53714603714600302069A7543007544A0
:10060A0015852945852A46852B47852C4875490035
:10061A00754A14754B00754C14754D00754E158549
:10062A002D4F852E50852F518530522275430075E6
:10063A00441575450085274675470075481575495F
:10064A0000754A14754B00754C14754D00754E149F
:10065A007BA07A8679017800AF34AE33AD32AC3103
:10066A001202D68E4F8F507BA07A8679017800AF1E
:10067A0034AE33AD32AC311202D6AC00AD01AE02AB
:10068A00AF03E47B107A27F9F81202D68E518F5203
:01069A00223D
:10048D007BA07A8679017800AF34AE33AD32AC31D2
:10049D001202D6AC00AD01AE02AF03E47B107A2799
:1004AD00F9F81202D6C0077BA07A8679017800AFE1
:1004BD0034AE33AD32AC311202D6E47B0AFAF9F820
:1004CD0012024BD0E02FF53FC395425013E5276044
:1004DD000F753503753620E4F521F522F5278022B9
:1004ED00E53FC39542402BE53FD395535024E52777
:1004FD006401601E753501753690E4F521F52275A0
:10050D002701533EEF853E8043A0A053A0BF53A0CB
:10051D001F22E53FD395534023E5276402601D75E7
:10052D0035007536C8E4F521F522433E10853E8031
:0D053D0043A0A053A0BF53A01F75270222AA
:03000B0002069B4F
:10069B00C0E0C0F0C083C082C0D075D000C000C025
:1006AB0001C002C003C004C005C006C007758000AE
:1006BB0043A0C053A0DF53A01FE53C25E02443F823
:1006CB00E6FE08E625E0FFEE33FE74182FF5827484
:1006DB00093EF583740193F58043A0E053A01F7F7F
:1006EB0001A83CEF08800123D8FDF58043A0C0533F
:1006FB00A0DF53A01F053CE53C64087002F53C12DB
:10070B000822D007D006D005D004D003D002D001E8
:0D071B00D000D0D0D082D083D0F0D0E0321A
:100A3200438E805389F0758ACD758CD4C28DD28C49
:050A4200D2AFD2A92291
:1003A100E53B14602314700302046C240260030211
:1003B100048C7F0F120A151209B5EF540F640F70E8
:1003C1000302048C753B01227F0F120A151209B535
:1003D100EF540F640F60081209B5EF540FF5087F51
:1003E100F0120A151209B5EF54F064F06008120911
:1003F100B5EF54F0F509E5084509FFF4700302046F
:100401008CEF12037B043D7704387B04337D042E8B
:100411007E0451B7044CBB0447BD0442BE0465D7FA
:100421000460DB045BDD0456DE00000468755502E0
:1004310080357555058030755508802B75550B80B5
:10044100267555038021755506801C755509801741
:1004510075380D8012755504800D75550780087526
:10046100550A800375380E753B02227F0F120A155B
:100471001209B5EF540F640F600C740A2541F54160
:0B048100E43540F54022E4F53BD202D8
:01048C00224D
:100A1500EF543FF5B0EFC4131313540124FF92C4F0
:0C0A2500EF5440C41313540324FF92C28A
:010A310022A2
:1009B500E4AFB0A2C433FEA2C2E433FDEEC43333C8
:1009C500335480FEEF543F4EFFEDC4333354C04FD4
:0109D500FF22
:0109D60022FE
:1008EB007580FF43A08053A09F53A01F7580FF43CB
:1008FB00A0E053A01FE4F58043A0C053A0DF53A09A
:0D090B001FF58043A0A053A0BF53A01F22E2
:1009D700E4FDFCC3ED9FEC9E5015E4FBFA0BBB0056
:0F09E700010ABA03F8BB55F50DBD00010C80E401
:0109F60022DE
:0409F7007F057E00FA
:1009FB00EF1FAA0670011E4A600FE4FDEDC3940CB5
:090A0B007480948050EA0D80F320
:010A140022BF
:02094400A90701
:10094600E4FBEBC39408748094805012C294E913BC
:1009560092941209F7D294E9C313F90B80E47F0548
:050966007E000209FB08
:10099200E4FBEBC39408748094805014C294ECC3BB
:1009A20013FCD2943094034304801209F70B80E2C3
:0209B200AF0490
:0109B4002220
:10096B00C206D2947F0C7E001209FBC2947F507E8C
:10097B00001209FBD2947F0A7E001209FBA294920B
:06098B00061209F7A206A6
:010991002243
:1008870012096B7FCC1209447F441209447FC87E4A
:10089700001209FB12096B7FCC1209447FBE1209B3
:1008A70044120992A907120992EF540FFFE48F0D22
:1008B700F50CF50BF50AAE0CAD0BAC0A7808120374
:1008C700688F0D8E0C8D0B8C0AAF01E50D4FF50D62
:1008D700E50CF50CE50BF50BE50AF50AAF0DAE0CCB
:0308E700AD0BFC5A
:0108EA0022EB
:03000000020728CC
:0C072800787FE4F6D8FD75815502076F5C
:10023900EF8DF0A4A8F0CF8CF0A428CE8DF0A42ED9
:02024900FE2293
:10024B00E88FF0A4CC8BF0A42CFCE98EF0A42CFC52
:10025B008AF0EDA42CFCEA8EF0A4CDA8F08BF0A4D0
:10026B002DCC3825F0FDE98FF0A42CCD35F0FCEB2F
:10027B008EF0A4FEA9F0EB8FF0A4CFC5F02ECD39F4
:0F028B00FEE43CFCEAA42DCE35F0FDE43CFC2261
:10029A0075F008758200EF2FFFEE33FECD33CDCC1B
:1002AA0033CCC58233C5829BED9AEC99E58298409E
:1002BA000CF582EE9BFEED9AFDEC99FC0FD5F0D67B
:1002CA00E4CEFBE4CDFAE4CCF9A88222B800C1B9A5
:1002DA000059BA002DEC8BF084CFCECDFCE5F0CBE3
:1002EA00F97818EF2FFFEE33FEED33FDEC33FCEB1C
:1002FA0033FB10D703994004EB99FB0FD8E5E4F9D7
:10030A00FA227818EF2FFFEE33FEED33FDEC33FCC3
:10031A00C933C910D7059BE99A4007EC9BFCE99AB7
:10032A00F90FD8E0E4C9FAE4CCFB2275F010EF2FFC
:10033A00FFEE33FEED33FDCC33CCC833C810D707FC
:10034A009BEC9AE899400AED9BFDEC9AFCE899F837
:0E035A000FD5F0DAE4CDFBE4CCFAE4C8F922CA
:10036800E8600FEFC333FFEE33FEED33FDEC33FCF3
:03037800D8F12297
:10037B00D083D082F8E4937012740193700DA3A311
:10038B0093F8740193F5828883E473740293686025
:06039B00EFA3A3A380DF25
:1007340002054AE493A3F8E493A34003F68001F28C
:1007440008DFF48029E493A3F85407240CC8C333C6
:10075400C4540F4420C8834004F456800146F6DF95
:10076400E4800B01020408102040809007B4E47E6A
:10077400019360BCA3FF543F30E509541FFEE4938A
:10078400A360010ECF54C025E060A840B8E493A351
:10079400FAE493A3F8E493A3C8C582C8CAC583CA7C
:1007A400F0A3C8C582C8CAC583CADFE9DEE780BE34
:0108210000D6
:00000001FF
