:100A9A0000C000F900A400B000990092008200F89A
:100AAA0000800090004000790024003000190012F4
:0A0ABA00000200780000001000FFA9
:1007FB00013FFF01400010430014001400140014CB
:10080B000014001400140014013E00013D00013AD5
:10081B000002410014C10202290000013901022724
:10082B000000C105023B0000C100042300000000D2
:10083B00022D000002210000C1040433000000005F
:10084B0002530000C103022F003202370000022BBB
:08085B00000002310000C101A0
:10062C00052AE52A70020529641445297007F52965
:10063C00F52A1204170528E52870020527643245AF
:10064C00277006F527F528D205053CE53C70020518
:10065C003B6464453B7006F53BF53CD2000522E556
:10066C002270020521FFAE21BE010ABF9007E4F5FE
:10067C0021F522D2040554E554700205536401455A
:10068C00537006F553F554D2033001490532E53267
:10069C007002053164644531703BF531F532053833
:1006AC00E53870020537C39463E53794004019E4CC
:1006BC00F537F5385340EF85408043A0A053A0BFD9
:1006CC0053A01FC201753902E53820E008052CE55E
:0606DC002C7002052B2228
:10052300120A6D12086C7F847E03120B7D12086C15
:10053300E47B717A02F9F81202288F368E358D34F6
:100543008C33120CA31209267F01120C5C752D004B
:100553008F2E7F057E00120B7D052EE52E70020582
:100563002DFD7F01120C8C7F057E00120B7D300563
:1005730005C2051202CF300205C20212097B200018
:1005830003020604C2007F01120C74AC07E41201DB
:100593001E7B967A4379FB783F12000E1201528F2D
:1005A300268E258D248C23E47F7DFEFDFCAB26AABD
:1005B30025A924A823D312028550197FFE7800EFC2
:1005C30008800123D8FD523F853F8043A08053A07C
:1005D3009F53A01FE47F7DFEFDFCAB26AA25A92423
:1005E300A823D312028540197F017800EF08800108
:1005F30023D8FD423F853F8043A08053A09F53A053
:100603001F300417C20412086CE47B717A02F9F8F4
:100613001202288F368E358D348C33200303020566
:0906230071C2031209FC02057109
:10097B00E53A6407701D20011AF52BF52CF53A4367
:10098B00401085408043A0A053A0BF53A01FD201AD
:10099B00753901E53A6406701AF537F538F53A53AF
:1009AB0040EF85408043A0A053A0BF53A01FC201BE
:0409BB007539022266
:1002CF00E53924FE700302037604600302041675F9
:1002DF004300754414AE2FAF307C007D641201D300
:1002EF00EF240AF546E43EF545AE2FAF307C007D96
:1002FF00641201D37E007F0ACFCDCFCECCCE1201B8
:10030F00D38E478F48AE2FAF307C007D0A1201D3BA
:10031F008C498D4AAE37AF387C037DE81201D38EFE
:10032F004B8F4CAE37AF387C037DE81201D37E0084
:10033F007F64CFCDCFCECCCE1201D3EF240AF54EB2
:10034F00E43EF54DAE37AF387C007D641201D37EAD
:10035F00007F0ACFCDCFCECCCE1201D38E4F8F5090
:10036F00AE37AF3802040B754300754414AE2FAF90
:10037F00307C007D641201D3EF240AF546E43EF58C
:10038F0045AE2FAF307C007D641201D37E007F0A13
:10039F00CFCDCFCECCCE1201D38E478F48AE2FAF5D
:1003AF00307C007D0A1201D38C498D4AAE2BAF2CC5
:1003BF007C037DE81201D38E4B8F4CAE2BAF2C7C80
:1003CF00037DE81201D37E007F64CFCDCFCECCCE9C
:1003DF001201D3EF240AF54EE43EF54DAE2BAF2CB0
:1003EF007C007D641201D37E007F0ACFCDCFCECCAF
:1003FF00CE1201D38E4F8F50AE2BAF2C7C007D0AC7
:08040F001201D38C518D522221
:1008D000E53D1460171460302402704930B00930CF
:1008E000B10630B20320B33D753D012220B003753F
:1008F0003A0720B103753A0620B203753A0520B3D2
:1009000003753A04753D022230B00930B10630B2A9
:100910000320B30C740A2542F542E43541F5412227
:06092000E4F53DD20222C5
:10041700E53D146023147003020502240260030201
:1004270005227F0F120C10120B5BEF540F640F7035
:1004370003020522753D01227F0F120C10120B5B80
:10044700EF540F640F6008120B5BEF540FF5147F26
:10045700F0120C10120B5BEF54F064F06008120BF3
:100467005BEF54F0F515E5144515FFF4700302052D
:1004770022EF1202A904BF7704BA7B04B57D04B04A
:100487007E04D3B704CEBB04C9BD04C4BE04E7D7FA
:1004970004E2DB04DDDD04D8DE04FBE704F6EB044D
:1004A700F1ED04ECEE000004FE753A078049753A59
:1004B700068044753A05803F753A04803A753A0BD1
:1004C7008035753A0A8030753A09802B753A08806D
:1004D70026753A0F8021753A0E801C753A0D8017E4
:1004E700753A0C8012753A13800D753A12800875AB
:1004F7003A118003753A10753D02227F0F120C10D6
:10050700120B5BEF540F640F600C740A2542F5421F
:0B051700E43541F54122E4F53DD2023D
:0105220022B6
:100C10008FB0EFC4131313540124FF92C4EF544058
:090C2000C41313540324FF92C213
:010C290022A8
:100B5B00E4AFB0A2C433FEA2C2E433FDEEC4333320
:100B6B00335480FEEF543F4EFFEDC4333354C04F2C
:010B7B00FF7A
:010B7C002256
:03000B000206E208
:1006E200C0E0C0F0C083C082C0D075D000C000C0DE
:1006F20001C002C003C004C005C006C00775800067
:1007020043A0C053A0DF53A01FE53E25E02443F8D9
:10071200E6FE08E625E0FFEE33FE749A2FF58274BA
:100722000A3EF583740193F58043A0E053A01F7F36
:1007320001A83EEF08800123D8FDF58043A0C053F5
:10074200A0DF53A01F053EE53E64087002F53E128D
:10075200062CD007D006D005D004D003D002D00199
:0D076200D000D0D0D082D083D0F0D0E032D3
:100A6D007580FF43A08053A09F53A01F7580FF4347
:100A7D00A0E053A01FE4F58043A0C053A0DF53A016
:0D0A8D001FF58043A0A053A0BF53A01F225F
:100CA300438E805389F0758ACD758CD4C28DD28CD6
:050CB300D2AFD2A9221E
:100B7D00E4FDFCC3ED9FEC9E5015E4FBFA0BBB00AE
:0F0B8D00010ABA03F8BB55F50DBD00010C80E459
:010B9C002236
:040C2A00D2A07F05D0
:100C2E00000000000000000000000000000000AE08
:060C3E00071FEE70EB221F
:0F0CE100D2A1120C2AC2A17F05120C2EC2A02292
:100BD800120A38120BC6120B12AD077F01120C4411
:0C0BE800C2A1120C2AD2A17F05020C2E23
:020A3800AD0708
:100A3A00E4FCECC39408748094805024C2A07F051F
:100A4A00120C2EED30E704D2A18002C2A17F05125A
:100A5A000C2ED2A0ED25E0FD7F05120C2E0C80D2C3
:020A6A00C2A028
:010A6C002267
:100B1200E4FCECC39408748094805017120C2AED04
:100B220025E0FD30A103430501C2A07F05120C2E72
:050B32000C80DFAF059F
:010B3700229B
:0B0BBB00120A38120BC6AF03120A38F2
:100BC600120C2AA2A1E433FDC2A07F05120C2EAF9F
:010BD6000519
:010BD70022FB
:100C4400C2A0EF24FF92A17F05120C2E120C2AC21F
:080C5400A0D2A17F05020C2EC5
:100C8C00AB05AA07120CE17FA0120A38120BC6AFF3
:070C9C0002120BBB020BE882
:020C5C00AB07E4
:100C5E00120CE17FA0120BBB120BE8120CE17FA16C
:050C6E00120BD8AF05D8
:010C7300225E
:100CB800AB07120CE17F90120A38120BC67F401264
:050CC8000BBB020BE86C
:020C7400AB07CC
:100C7600120CE17F90120BBB120BE8120CE17F9174
:050C8600120BD8AF05C0
:010C8B002246
:040B9D007F057E0052
:100BA100EF1FAA0670011E4A600FE4FDEDC3940C0D
:090BB1007480948050EA0D80F379
:010BBA002218
:020AC400A90780
:100AC600E4FBEBC39408748094805012C294E9133B
:100AD6009294120B9DD294E9C313F90B80E47F051F
:050AE6007E00020BA1DF
:100B3800E4FBEBC39408748094805014C294ECC313
:100B480013FCD294309403430480120B9D0B80E273
:020B5800AF04E8
:010B5A002278
:100AEB00C206D2947F0C7E00120BA1C2947F507E63
:100AFB0000120BA1D2947F0A7E00120BA1A294923A
:060B0B0006120B9DA2067C
:010B110022C1
:10086C00120AEB7FCC120AC47F44120AC47FC87EE2
:10087C0000120BA1120AEB7FCC120AC47FBE120A23
:10088C00C4120B38A907120B38EF540FFFE48F1961
:10089C00F518F517F516AE18AD17AC167808120248
:1008AC00968F198E188D178C16AF01E5194FF51907
:1008BC00E518F518E517F517E516F516AF19AE1886
:0308CC00AD17FC69
:0108CF002206
:0808630006080032003B0017FB
:100BF400E4FEEEC3940874809480500FC297EF1300
:0B0C040092A3EFC313FFD2970E80E70E
:010C0F0022C2
:100CCD00C29300C29700D29300120BF4AF05120B22
:040CDD00F4C29322A8
:1009BF00E4FDC29300C29700D29300120BF4E4FF40
:1009CF00EFC39408748094805011C297EDC313FD48
:1009DF0030A303430580D2970F80E5C29300C297DF
:0C09EF0000D29700C2A300D2A300AF0505
:0109FB0022D9
:10092600751680E4FD7F8E120CCDE4FBEBC39403B9
:10093600748094805038EB25E02408F8E6FE08E63B
:10094600FF7C007D0A1201D3EFC454F0FAEB25E0D8
:100956002408F8E6FE08E6FF7C007D0A1201D3EAC9
:100966004DFDAF16120CCD051605160B80BE7D800B
:050976007F8E020CCD94
:1009FC007C81E4FBEBC3940374809480502DAF0492
:100A0C001209BFAD07EDC4540F75F00AA4FFED54E5
:100A1C000F7583002FFFE58335F0FEEB25E0240EE8
:0B0A2C00F8A60608A6070C0C0B80C9FA
:010A3700229C
:10000E00EC4D6011E8497017ED33EC3304600DE4EC
:10001E00FCFFFEFD22E933E8330470F80201BE1244
:10002E00018958046009E4CC248150062850090245
:10003E0001C82840030201C5C0E0EB4A7044B980F4
:10004E0006D0E0FB0201B4EF4E701CBD8008EBFF42
:10005E00EAFEE9FD80EBE98DF0A4FEE5F00200F783
:10006E00E9CDF9EAFEEBFFEF89F0A4FCE5F0CE89CD
:10007E00F0A42EFFE435F0CD89F0A42DFEE435F08A
:10008E008067EF4E7005BD80D780C3EF8BF0A4ACB8
:10009E00F0EE8BF0A42CFCE435F0F8EF8AF0A42CF3
:1000AE00E5F038FCE433CB8DF0A42CFCE5F03BF806
:1000BE00EE8AF0A42CFCE5F038F8E433CF89F0A4F6
:1000CE002CFCE5F038CF3400CE89F0A42FFFE5F0FC
:1000DE003EFEE433C98DF0A42EFEE5F039CD8AF054
:1000EE00A42FFFE5F03EFEE43DFD33D0E0FB5007CC
:1000FE000BBB000F0201C8EC2CFCEF33FFEE33FEFE
:06010E00ED33FD0201A02B
:1001140075F020800E75F010800575F0087D007E66
:10012400007F003392D530D503120277EC334010B0
:10013400EF33FFEE33FEED33FDEC33FCD5F0ED226F
:0E014400E5F0247EA2D513CC92E7CDCEFF22AB
:10015200EDD2E7CD33EC3392D524814006E4FFFEA5
:10016200FDFC22FCE4CFCECDCC24E0501174FF8004
:10017200EDC3CC13CCCD13CDCE13CECF13CF0470A1
:07018200F030D5DE02027728
:10018900E9D2E7C933E833F892D5EDD2E7CD33ECBC
:0701990033FC5002B2D52235
:1001A000EC30E7100FBF000C0EBE00080DBD0004C0
:1001B0000BEB6014A2D5EB13FCED92E7FD2274FF6C
:1001C000FCFDFEFF22E480F8A2D574FF13FC7D80C5
:0301D000E480EFD9
:0300000002076F85
:0C076F00787FE4F6D8FD7581540207B6CF
:1001D300BC000BBE0029EF8DF084FFADF022E4CC10
:1001E300F875F008EF2FFFEE33FEEC33FCEE9DECD9
:1001F300984005FCEE9DFE0FD5F0E9E4CEFD22ED1F
:10020300F8F5F0EE8420D21CFEADF075F008EF2F68
:10021300FFED33FD4007985006D5F0F222C398FD59
:050223000FD5F0EA22F6
:10022800E88FF0A4CC8BF0A42CFCE98EF0A42CFC75
:100238008AF0EDA42CFCEA8EF0A4CDA8F08BF0A4F3
:100248002DCC3825F0FDE98FF0A42CCD35F0FCEB52
:100258008EF0A4FEA9F0EB8FF0A4CFC5F02ECD3917
:0F026800FEE43CFCEAA42DCE35F0FDE43CFC2284
:0E027700C3E49FFFE49EFEE49DFDE49CFC2298
:10028500EB9FF5F0EA9E42F0E99D42F0E89C45F0CF
:010295002246
:10029600E8600FEFC333FFEE33FEED33FDEC33FCC6
:0302A600D8F1226A
:1002A900D083D082F8E4937012740193700DA3A3E4
:1002B90093F8740193F5828883E4737402936860F8
:0602C900EFA3A3A380DFF8
:10077B00020523E493A3F8E493A34003F68001F26C
:10078B0008DFF48029E493A3F85407240CC8C3337F
:10079B00C4540F4420C8834004F456800146F6DF4E
:1007AB00E4800B01020408102040809007FBE47EDC
:1007BB00019360BCA3FF543F30E509541FFEE49343
:1007CB00A360010ECF54C025E060A840B8E493A30A
:1007DB00FAE493A3F8E493A3C8C582C8CAC583CA35
:1007EB00F0A3C8C582C8CAC583CADFE9DEE780BEED
:01086B00008C
:00000001FF
