:1007B60000C000F900A400B000990092008200F881
:1007C60000800090004000790024003000190012DB
:0E07D600000200780000001000FF00BF00C607
:1006C9000134FF103B00140014001400140014003E
:1006D9001400140014013100013000023500140126
:1006E9002700C100014B00012E01012600C10302B0
:1006F900240000C1020437000000000228000001A4
:100709002102012F0102320000022A0000022C00FE
:0907190000C10402220000C1012C
:10066B000527E52764147005F5271207230526E5F2
:10067B002664147004F526D2030525E525700205C2
:10068B0024FFAE24BE010ABFC207E4F524F525D230
:10069B0002052BE52B7002052AFFAE2ABE030ABF0B
:1006AB00E807E4F52AF52BD2040523E523700205B0
:0E06BB002264C845227006F522F523D20122E2
:10001E001207E41206077F527E03120882120607A9
:10002E00E47B717A02F9F81202518F3A8E398D38CB
:10003E008C371208D51208C0AF2F7E00EF64017006
:10004E00057521028014EF64024E70057521038040
:10005E0009EF64034E7003752107300005C20012CC
:10006E000461300305C203120381300217C202126B
:10007E000607E47B717A02F9F81202518F3A8E3933
:10008E008D388C37300415D3E52D9400E52C940073
:10009E00400AC204E52D152D7002152C300199C2AF
:1000AE0001E52D452C700302019CE52FFD7C0064BB
:1000BE0001703F7FFEF8EF08800123D8FD52348592
:1000CE00348043A08053A09F53A01F7F017801EF7F
:1000DE0008800123D8FD423485348043A08053A08C
:1000EE009F53A01F7F017802EF08800123D8FD02E5
:1000FE00018BED64024C703F7FFE7801EF088001AA
:10010E0023D8FD523485348043A08053A09F53A042
:10011E001F7F017800EF08800123D8FD423485341B
:10012E008043A08053A09F53A01F7F017802EF0849
:10013E00800123D8FD8046E52F640360030200464C
:10014E007FFE7802EF08800123D8FD52348534807B
:10015E0043A08053A09F53A01F7F017801EF08801A
:10016E000123D8FD423485348043A08053A09F5391
:10017E00A01F7F017800EF08800123D8FD4234854F
:10018E00348043A08053A09F53A01F0200467F01DE
:10019E007800EF08800123D8FD423485348043A0D7
:1001AE008053A09F53A01F7F017801EF0880012389
:1001BE00D8FD423485348043A08053A09F53A01FA6
:1001CE007F017802EF08800123D8FD423485348008
:0C01DE0043A08053A09F53A01F020046C6
:10046100E54B64077010F54BE52E64017005752EA0
:10047100028003752E01E54B6406700AF54BF52CDD
:10048100F52DF532F533E54B64057039F54BE53360
:1004910045327007F532753301801BE53364014540
:1004A100327007F532753302800CE5336402453250
:1004B1007004F532F533AE32AF337C007D3C12016E
:1004C100EA8E2C8F2DE54B64047021F54BAF2FFE86
:1004D100EF64017004752F0222EF64024E700475FF
:0D04E1002F0322EF64034E7003752F0122DC
:10038100E52E24FE6075046003020460753B007570
:100391003C15753D00852F3E753F00754015754133
:1003A10000754214AE2CAF2D7C037DE81201FC8E4A
:1003B100438F44AE2CAF2D7C037DE81201FC7E00FF
:1003C1007F64CFCDCFCECCCE1201FC8E458F46AE11
:1003D1002CAF2D7C007D641201FC7E007F0ACFCD05
:1003E100CFCECCCE1201FC8E478F48AE2CAF2D7CE8
:1003F100007D0A1201FC8C498D4A22753B00753C37
:1004010015753D00753E04753F0075401575410039
:100411007542147543007544147BA07A867901787E
:1004210000AF3AAE39AD38AC371202DC8E458F469B
:100431007BA07A8679017800AF3AAE39AD38AC3716
:100441001202DCAC00AD01AE02AF03E47B107A27EF
:10045100F9F81202DC8E478F48754900754A162259
:03001B0002077960
:10077900C0E0C0D075D000C006E52D452C60257EAF
:10078900000529E52970020528B52108EEB52804D8
:10079900C2B48012E529640A4528700AD2B4F52842
:0D07A900F5298002C2B4D006D0D0D0E032D5
:03000B000204EEFE
:1004EE00C0E0C0F0C083C082C0D075D000C000C0D4
:1004FE0001C002C003C004C005C006C0077580005D
:10050E0043A0C053A0DF53A01FE53125E0243BF8E4
:10051E00E6FE08E625E0FFEE33FE74B62FF5827494
:10052E00073EF583740193F58043A0E053A01F7F2F
:10053E0001A831EF08800123D8FDF58043A0C053F8
:10054E00A0DF53A01F0531E53164087002F53112AA
:10055E00066BD007D006D005D004D003D002D00150
:0D056E00D000D0D0D082D083D0F0D0E032C9
:10072300E5301460171460302402704930B009308A
:10073300B10630B20320B33D7530012220B00375FA
:100743004B0720B103754B0620B203754B0520B34D
:1007530003754B047530022230B00930B10630B254
:100763000320B30C740A2536F536E43535F5352206
:06077300E4F530D2002283
:1007E4007580FF43A08053A09F53A01F7580FF43D3
:1007F400A0E053A01FE4F58043A0C053A0DF53A0A2
:0D0804001FF58043A0A053A0BF53A01F22EA
:1008C000438E4053890F758BAE758DFBC28FD28ED0
:0508D000D2AFD2AB2203
:1008D500438E805389F0758ACD758CD4C28DD28CA8
:0508E500D2AFD2A922F0
:10088200E4FDFCC3ED9FEC9E5015E4FBFA0BBB00AC
:0F089200010ABA03F8BB55F50DBD00010C80E457
:0108A1002234
:0408A2007F057E0050
:1008A600EF1FAA0670011E4A600FE4FDEDC3940C0B
:0908B6007480948050EA0D80F377
:0108BF002216
:02081100A90735
:10081300E4FBEBC39408748094805012C294E913F0
:1008230092941208A2D294E9C313F90B80E47F05D2
:050833007E000208A692
:10085F00E4FBEBC39408748094805014C294ECC3EF
:10086F0013FCD2943094034304801208A20B80E24D
:02087F00AF04C4
:010881002254
:10083800C205D2947F0C7E001208A6C2947F507E17
:10084800001208A6D2947F0A7E001208A6A29492EB
:06085800051208A2A20532
:01085E002277
:100607001208387FCC1208117F441208117FC87E68
:10061700001208A61208387FCC1208117FBE1208F4
:100627001112085FA90712085FEF540FFFE48F0B41
:10063700F50AF509F508AE0AAD09AC087808120302
:100647006E8F0B8E0A8D098C08AF01E50B4FF50BEA
:10065700E50AF50AE509F509E508F508AF0BAE0A5D
:03066700AD09FCDE
:01066A00226D
:0300000002057B7B
:0C057B00787FE4F6D8FD75814B0205C2C4
:1001EA00EF8DF0A4A8F0CF8CF0A428CE8DF0A42E29
:0201FA00FE22E3
:1001FC00BC000BBE0029EF8DF084FFADF022E4CCE7
:10020C00F875F008EF2FFFEE33FEEC33FCEE9DECAF
:10021C00984005FCEE9DFE0FD5F0E9E4CEFD22EDF5
:10022C00F8F5F0EE8420D21CFEADF075F008EF2F3F
:10023C00FFED33FD4007985006D5F0F222C398FD30
:05024C000FD5F0EA22CD
:10025100E88FF0A4CC8BF0A42CFCE98EF0A42CFC4C
:100261008AF0EDA42CFCEA8EF0A4CDA8F08BF0A4CA
:100271002DCC3825F0FDE98FF0A42CCD35F0FCEB29
:100281008EF0A4FEA9F0EB8FF0A4CFC5F02ECD39EE
:0F029100FEE43CFCEAA42DCE35F0FDE43CFC225B
:1002A00075F008758200EF2FFFEE33FECD33CDCC15
:1002B00033CCC58233C5829BED9AEC99E582984098
:1002C0000CF582EE9BFEED9AFDEC99FC0FD5F0D675
:1002D000E4CEFBE4CDFAE4CCF9A88222B800C1B99F
:1002E0000059BA002DEC8BF084CFCECDFCE5F0CBDD
:1002F000F97818EF2FFFEE33FEED33FDEC33FCEB16
:1003000033FB10D703994004EB99FB0FD8E5E4F9D0
:10031000FA227818EF2FFFEE33FEED33FDEC33FCBD
:10032000C933C910D7059BE99A4007EC9BFCE99AB1
:10033000F90FD8E0E4C9FAE4CCFB2275F010EF2FF6
:10034000FFEE33FEED33FDCC33CCC833C810D707F6
:100350009BEC9AE899400AED9BFDEC9AFCE899F831
:0E0360000FD5F0DAE4CDFBE4CCFAE4C8F922C4
:10036E00E8600FEFC333FFEE33FEED33FDEC33FCED
:03037E00D8F12291
:1005870002001EE493A3F8E493A34003F68001F26C
:1005970008DFF48029E493A3F85407240CC8C33375
:1005A700C4540F4420C8834004F456800146F6DF44
:1005B700E4800B01020408102040809006C9E47E05
:1005C700019360BCA3FF543F30E509541FFEE49339
:1005D700A360010ECF54C025E060A840B8E493A300
:1005E700FAE493A3F8E493A3C8C582C8CAC583CA2B
:1005F700F0A3C8C582C8CAC583CADFE9DEE780BEE3
:0107220000D6
:00000001FF
