:100BFB0000C000F900A400B000990092008200F838
:100C0B000080009000400079002400300019001291
:0E0C1B00000200780000001000FF00BF00C6BD
:100812000137FF015C00012600C103023800140108
:100822005B00103E001400140014001400140014A5
:100832000014001402330000013200012500C10738
:1008420002230000C106043A00000000025D00001D
:10085200C104012F000354432201C100064E0000CF
:1008620000000000012200C105C101C108022900E7
:1008720000022D0000023500000259000002300083
:1008820000C10202570000022B000002270000C133
:01089200095C
:1009AA000526E526640A7005F5261209300525E5AF
:1009BA002564147004F525D2070524E52470020580
:1009CA0023FFAE23BE010ABFC207E4F523F524D2F2
:1009DA0006055EE55E7002055DFFAE5DBE010ABFFB
:1009EA00F407E4F55DF55ED2040522E52275F0C848
:1009FA0084E5F07002D2050528E52870020527FF74
:100A0A00AE27BE010ABFF407E4F527F528D209226A
:10041D00120C297F017E00120CC7120A827F527EB8
:10042D0003120CC7120A82E47B717A02F9F81202E8
:10043D00ED8F3D8E3C8D3B8C3A120D36120D2112F7
:10044D000A1A120AE6300705C20712001E3003050C
:10045D00C2031205E2300617C206120A82E47B714E
:10046D007A02F9F81202ED8F3D8E3C8D3B8C3A30BD
:10047D000405C204120AE6C3E50F954FE54E6480EC
:10048D00F8E50E6480985003020522E54F2405FF20
:10049D00E4354EFED3E50F9FEE6480F8E50E6480E3
:1004AD00985072E51165517004E51065507066E560
:1004BD001365537004E5126552705A300533C20549
:1004CD00300110C2017FFEF8EF08800123D8FD52E4
:1004DD0037801220011BD2017F017800EF088001C7
:1004ED0023D8FD423785378043A08053A09F53A06A
:1004FD001FC3E52294897480949340197F0178007D
:10050D00EF08800123D8FD423785378043A0805303
:10051D00A09F53A01F200903020452C209E53625EE
:10052D005AFBE5353559FAAE35AF367C007D641290
:10053D000250AD03AC021202628E308F318A578B9E
:10054D0058E4F9F87FA07E867D01FC120B3B8E2BC3
:10055D008F2CAE30AF317C007D0A1202628E3E8F41
:10056D003FAE30AF317C007D0A1202628C408D416E
:10057D00754200754314754400754514AE2BAF2CB0
:10058D007C037DE81202628E468F47AE2BAF2C7C2A
:10059D00037DE81202627E007F64CFCDCFCECCCE3C
:1005AD001202628E488F49AE2BAF2C7C007D6412F7
:1005BD0002627E007F0ACFCDCFCECCCE1202628EEC
:1005CD004A8F4BAE2BAF2C7C007D0A1202628C4CF5
:0505DD008D4D020452E7
:03001B00020B7F56
:100B7F00C0E030B41B052AE52A7002052930022C8B
:100B8F00C202852D59852E5A752D00752E00801C99
:100B9F0020B419052EE52E7002052D20020ED2026B
:0F0BAF00852935852A36752900752A00D0E03250
:10001E00E53224FE70030200EE1470030201532435
:10002E0002600302024FAE12AF137C007D0A120271
:10003E00B78E3E8F3FAE12AF137C007D0A1202B711
:10004E008C408D41754200754315AE10AF117C008A
:10005E007D0A1202B78E448F45AE10AF117C007D23
:10006E000A1202B78C468D47754800754915AE0EBB
:10007E00AF0F7C007D0A1202B78E4A8F4BAE0EAFC9
:10008E000F7C007D0A1202B78C4C8D4DAE0EAF0F59
:10009E007C007D021202B7ED4C70063000030201A7
:1000AE00CBED64014C600302024F20000302024FAD
:1000BE00E52F25E0240EF8E6FE08E6FF7C007D0A1B
:1000CE001202B77454252FF8E675F00A8425E02441
:1000DE003EF8A60608A607E52F25E0240E02022C00
:1000EE00753E00753F1475400075411475420075DC
:1000FE0043147544007545147546007547147BA06E
:10010E007A8679017800AF3DAE3CAD3BAC3A120336
:10011E00788E488F497BA07A8679017800AF3DAE04
:10012E003CAD3BAC3A120378AC00AD01AE02AF036E
:10013E00E47B107A27F9F81203788E4A8F4B754CB0
:10014E0000754D1622AE52AF537C007D0A1202B7D7
:10015E008E3E8F3FAE52AF537C007D0A1202B78C9B
:10016E00408D41754200754315AE50AF517C007DF8
:10017E000A1202B78E448F45AE50AF517C007D0AF5
:10018E001202B78C468D47754800754915AE4EAFB5
:10019E004F7C007D0A1202B78E4A8F4BAE4EAF4F88
:1001AE007C007D0A1202B78C4C8D4DAE0EAF0F7CCB
:1001BE00007D021202B7ED4C702E30002B745425C8
:1001CE002FF8E675F00A8425E0243EF876000876CE
:1001DE00147454252FF8E675F00A84E5F025E02412
:1001EE003EF8760008761422ED64014C7053300010
:1001FE0050E52F25E0244EF8E6FE08E6FF7C007D54
:10020E000A1202B77454252FF8E675F00A8425E019
:10021E00243EF8A60608A607E52F25E0244EF8E6AC
:10022E00FE08E6FF7C007D0A1202B77454252FF8F3
:10023E00E675F00A84E5F025E0243EF8A60408A64B
:02024E00052287
:1005E200E55B64077031F55BAF2FFEEF6402700DBF
:1005F200752F01200021D200752F02801AEF6401AD
:100602004E7004F52F8010EF4E700C752F023000E3
:1006120004C2008002D200E55B6406701CF55BF543
:100622002FC200AF32FEEF640170057532038009FC
:10063200EF64034E7003753201E55B6405600302EB
:1006420006E5F55BE5326401704C300049E52F2583
:10065200E0240EF80806E618700106D3E50F943B75
:10066200E50E648094804005E4F50EF50FD3E511A4
:10067200943BE510648094804005E4F510F511D3B5
:10068200E5139417E512648094804005E4F512F5B1
:1006920013120A1A804DE53264037047300044E5B4
:1006A2002F25E0244EF80806E618700106D3E54F20
:1006B200943BE54E648094804005E4F54EF54FD3BB
:1006C200E551943BE550648094804005E4F550F593
:1006D20051D3E5539417E552648094804005E4F5C4
:1006E20052F553E55B6404600302077BF55BE53278
:1006F2006401704130003EE52F25E0240EF808E643
:100702001618700116C3E50E648094805006750EAB
:1007120000750F3BC3E5106480948050067510008D
:1007220075113BC3E5126480948050067512007502
:100732001317020A1AE5326403703E30003BE52FBC
:1007420025E0244EF808E61618700116C3E54E643B
:100752008094805006754E00754F3BC3E55064800F
:100762009480500675500075513BC3E552648094E5
:0A07720080500675520075531722DF
:10093000E55C1460171460302402706D30B009302B
:10094000B10630B20320B361755C012220B003759B
:100950005B0720B103755B0620B203755B0520B30E
:1009600003755B04755C022230B00930B10630B209
:100970000320B31E740A2539F539E43538F538E516
:100980003264017024E55B6404701E20001B753224
:100990000222E4F55CD203E5326402700CE55B648C
:0A09A00004700620000375320122E6
:100D2100438E4053890F758B91758DFFC28FD28E83
:050D3100D2AFD2AB229D
:03000B0002077C6D
:10077C00C0E0C0F0C083C082C0D075D000C000C043
:10078C0001C002C003C004C005C006C007758000CC
:10079C0043A0C053A0DF53A01FAD34ED25E0243E91
:1007AC00F8E6FE08E625E0FFEE33FE74FB2FF5823B
:1007BC00740B3EF583740193F58043A0E053A01FA6
:1007CC007F01A805EF08800123D8FDF58043A0C068
:1007DC0053A0DF53A01F0534E534700205336408C1
:1007EC0045337004F533F5341209AAD007D006D07E
:1007FC0005D004D003D002D001D000D0D0D082D00C
:06080C0083D0F0D0E032C1
:100D3600438E805389F0758ACD758CD4C28DD28C42
:050D4600D2AFD2A9228A
:100C29007580FF43A08053A09F53A01F7580FF4389
:100C3900A0E053A01FE4F58043A0C053A0DF53A058
:0D0C49001FF58043A0A053A0BF53A01F22A1
:100CC700E4FDFCC3ED9FEC9E5015E4FBFA0BBB0063
:0F0CD700010ABA03F8BB55F50DBD00010C80E40E
:010CE60022EB
:040CE7007F057E0007
:100CEB00EF1FAA0670011E4A600FE4FDEDC3940CC2
:090CFB007480948050EA0D80F32E
:010D040022CC
:020C5600A907EC
:100C5800E4FBEBC39408748094805012C294E913A7
:100C68009294120CE7D294E9C313F90B80E47F0540
:050C78007E00020CEB00
:100CA400E4FBEBC39408748094805014C294ECC3A6
:100CB40013FCD294309403430480120CE70B80E2BB
:020CC400AF047B
:010CC600220B
:100C7D00C20AD2947F0C7E00120CEBC2947F507E80
:100C8D0000120CEBD2947F0A7E00120CEBA2949210
:060C9D000A120CE7A20A96
:010CA300222E
:100A8200120C7D7FCC120C567F44120C567FC87E0E
:100A920000120CEB120C7D7FCC120C567FBE120C96
:100AA20056120CA4A907120CA4EF540FFFE48F17DF
:100AB200F516F515F514AE16AD15AC14780812043A
:100AC2000A8F178E168D158C14AF01E5174FF51787
:100AD200E516F516E515F515E514F514AF17AE167E
:030AE200AD15FC53
:010AE50022EE
:1008930006080032003B0017060E0032003B00172B
:100D0500E4FEEEC3940874809480500FC297EF13ED
:0B0D150092A3EFC313FFD2970E80E7FC
:010D200022B0
:100D4B00C29300C29700D29300120D05AF05120D8E
:040D5B0005C2932218
:100BBE00E4FDC29300C29700D29300120D05E4FF2C
:100BCE00EFC39408748094805011C297EDC313FD47
:100BDE0030A303430580D2970F80E5C29300C297DE
:0C0BEE0000D29700C2A300D2A300AF0504
:010BFA0022D8
:100A1A00751400751580E4FD7F8E120D4BE4F516F2
:100A2A00F517AB17EB25E0240EF8E6FE08E6FF7C87
:100A3A00007D0A1202B7EFC454F0FAEB25E0240E47
:100A4A00F8E6FE08E6FF7C007D0A1202B7EA4DFDD1
:100A5A00AF15120D4B74022515F515E43514F5146E
:100A6A000517E51770020516C39403E516940040AE
:080A7A00B17D807F8E020D4B5F
:100AE600751400751581E4FBFAAF15120BBE8F82E3
:100AF600758300E583C4F854F0C868FEE582C454E3
:100B06000F48FF7C007D0A120250E582540F2FFF2A
:100B1600EC3EFEEB25E0240EF8A60608A6077402B6
:100B26002515F515E43514F5140BBB00010AEB6425
:040B3600034A70B549
:010B3A002298
:030000000208A44F
:0C08A400787FE4F6D8FD75815E0208EB59
:10025000EF8DF0A4A8F0CF8CF0A428CE8DF0A42EC2
:02026000FE227C
:10026200BC000BBE0029EF8DF084FFADF022E4CC80
:10027200F875F008EF2FFFEE33FEEC33FCEE9DEC49
:10028200984005FCEE9DFE0FD5F0E9E4CEFD22ED8F
:10029200F8F5F0EE8420D21CFEADF075F008EF2FD9
:1002A200FFED33FD4007985006D5F0F222C398FDCA
:0502B2000FD5F0EA2267
:1002B700C2D5EC30E709B2D5E4C39DFDE49CFCEE62
:1002C70030E715B2D5E4C39FFFE49EFE120262C376
:1002D700E49DFDE49CFC800312026230D507C3E471
:0602E7009FFFE49EFE22D1
:1002ED00E88FF0A4CC8BF0A42CFCE98EF0A42CFCB0
:1002FD008AF0EDA42CFCEA8EF0A4CDA8F08BF0A42E
:10030D002DCC3825F0FDE98FF0A42CCD35F0FCEB8C
:10031D008EF0A4FEA9F0EB8FF0A4CFC5F02ECD3951
:0F032D00FEE43CFCEAA42DCE35F0FDE43CFC22BE
:10033C0075F008758200EF2FFFEE33FECD33CDCC78
:10034C0033CCC58233C5829BED9AEC99E5829840FB
:10035C000CF582EE9BFEED9AFDEC99FC0FD5F0D6D8
:10036C00E4CEFBE4CDFAE4CCF9A88222B800C1B902
:10037C000059BA002DEC8BF084CFCECDFCE5F0CB40
:10038C00F97818EF2FFFEE33FEED33FDEC33FCEB79
:10039C0033FB10D703994004EB99FB0FD8E5E4F934
:1003AC00FA227818EF2FFFEE33FEED33FDEC33FC21
:1003BC00C933C910D7059BE99A4007EC9BFCE99A15
:1003CC00F90FD8E0E4C9FAE4CCFB2275F010EF2F5A
:1003DC00FFEE33FEED33FDCC33CCC833C810D7075A
:1003EC009BEC9AE899400AED9BFDEC9AFCE899F895
:0E03FC000FD5F0DAE4CDFBE4CCFAE4C8F92228
:100B3B00C2D5E830E70FB2D5E4C39BFBE49AFAE4E5
:100B4B0099F9E498F8EC30E717B2D5120B71120350
:100B5B0078E4C39BFBE49AFAE499F9E498F88003F0
:100B6B0012037830D50DE4C39FFFE49EFEE49DFD98
:040B7B00E49CFC22D8
:10040A00E8600FEFC333FFEE33FEED33FDEC33FC50
:03041A00D8F122F4
:1008B00002041DE493A3F8E493A34003F68001F23D
:1008C00008DFF48029E493A3F85407240CC8C33349
:1008D000C4540F4420C8834004F456800146F6DF18
:1008E000E4800B0102040810204080900812E47E8E
:1008F000019360BCA3FF543F30E509541FFEE4930D
:10090000A360010ECF54C025E060A840B8E493A3D3
:10091000FAE493A3F8E493A3C8C582C8CAC583CAFE
:10092000F0A3C8C582C8CAC583CADFE9DEE780BEB6
:0108A3000054
:00000001FF
