:100DFD0000C000F900A400B000990092008200F834
:100E0D00008000900040007900240030001900128D
:0E0E1D00000200780000001000FF00C100BFBE
:1008A6000149FF014C0010530014001400140014F9
:1008B6000014001400140014014600016700024DE4
:1008C6000014016600C108012B00C1060165010183
:1008D6002A00C10F02680000C10A02440000023D5E
:1008E6000000024A0000C105026300000223000066
:1008F600023703E8024000320231000002470000DE
:10090600C104023B0000022F00000233000002393E
:100916000000022C000002350000C1000227000082
:10092600C10E044F00000000013F17026A0000C11B
:100936000BC107012901012E00C101C109024200B4
:0D09460000C102C10C02250000C10DC1035B
:10095C00052BE52B640A7005F52B120563052AE5BA
:10096C002A640A7004F52AD20F054BE54B70020578
:10097C004AFFAE4ABE010ABFF407E4F54AF54BD272
:10098C00050548E54870020547FFAE47BE010ABFA2
:10099C00F407E4F547F548D2040528E5287002056C
:1009AC0027FFAE27BE010ABFF407E4F527F528D2CE
:1009BC000E056BE56B7002056AFFAE6ABE030ABFDB
:1009CC008407E4F56AF56BD20B0543E54370020529
:1009DC0042646445427006F542F543D2020526E5B1
:1009EC002670020525646445257006F525F526D28A
:0209FC000D22CA
:1006A200120E2B120C8D7FE87E03120F0C120C8D92
:1006B200E47B717A02F9F81202928F528E518D50B8
:1006C2008C4F120F83120FBE120FAC120C251200A8
:1006D2000E300805C2081209FE300F05C20F1203C0
:1006E200F6300A05C20A120CF1300555C205AE37C2
:1006F200AF38AB07AA06E4F9F87FA07E867D01FC3D
:10070200120D3DEF24FFF564EE34FFF563AE37AF13
:1007120038AB07AA06E4F9F87FA07E867D01FC12B9
:100722000D3DA804A905AA06AB07AE40AF41E4FC03
:10073200FD120292E47B64FAF9F8120D3D8E238FCA
:1007420024300433C204E53A2536FBE5393535FA5F
:10075200AE35AF367C007D6412022BAD03AC0212C3
:10076200023D8E3B8F3CE4F9F87FA07E867D01FC42
:10077200120D3D8E2F8F30300E23C20E120C8DE4DF
:100782007B717A02F9F81202928F528E518D508C3F
:100792004FE47B107A27F9F812031D8F2E300B05D8
:1007A200C20B12000E300205C202120BB6200D035C
:0B07B2000206D3C20D1207BD0206D3E1
:1009FE00E566640C7023F566AF65FEEF6401700565
:100A0E007565028014EF64024E70057565038009EA
:100A1E00EF64034E7003756501E566640D7027F58E
:100A2E0066AF29FEEF640170057529028009EF6437
:100A3E00024E7012752901534CEF854C8043A0A0D5
:100A4E0053A0BF53A01FE56664107015E5656403DF
:100A5E00700FF566E53F64637005753F63800205B0
:100A6E003FE56664117027F566AF65FEEF640370AF
:100A7E000ED3E53F940A748094804003153F22EF15
:0F0A8E0064034E7009E53F640A7003753F0A2246
:1003F600E56524FE700302049814700302052624A2
:100406000260030205627553007554157555007533
:100416005601755700755814755900755A14755B51
:1004260000755C147BA07A8679017800AF52AE51D4
:10043600AD50AC4F12031D8E5D8F5E7BA07A867920
:10044600017800AF52AE51AD50AC4F12031DAC0057
:10045600AD01AE02AF03E47B107A27F9F812031D53
:10046600EF240AF560E43EF55FE47B107A27F9F89D
:10047600AF52AE51AD50AC4F12031DAC00AD01AE44
:1004860002AF03E47BE87A03F9F812031D8E618F4D
:1004960062227553007554157555007556027557C9
:1004A60000755814200633AE13AF147C007D0A1273
:1004B600023D8E598F5AAE13AF147C007D0A12028C
:1004C6003D8C5B8D5CAE11AF127C007D0A12023D45
:1004D6008E5F8F60AE11AF12803430063CAE11AF26
:1004E600127C007D0A12023D8E598F5AAE11AF1250
:1004F6007C007D0A12023D8C5B8D5CAE0FAF107CDA
:10050600007D0A12023D8E5F8F60AE0FAF107C0039
:100516007D0A12023D8C618D62755D00755E162244
:100526007553007554157555007556037557007546
:100536005814755900755A14755B00755C14755D11
:1005460000755E14E53F75F00A84755F00F560E599
:0D0556003F75F00A84AFF07561008F6222DE
:1007BD00E510450F7022E5124511701C7FFEF8EF14
:1007CD0008800123D8FD524985498043A08053A05C
:1007DD009F53A01FD2098029300926C3E510940527
:1007ED00E50F9400401B7F017800EF08800123D8AE
:1007FD00FD424985498043A08053A09F53A01FC24D
:10080D0009E529FD7C006401700F7FFE7801EF087A
:10081D00800123D8FD52498013ED64024C70197F7D
:10082D000178010408800123D8FD424985498043A0
:10083D00A08053A09F53A01F200906200103300C58
:10084D003E30031C7F017802EF08800123D8FD4262
:10085D004985498043A08053A09F53A01FC2032206
:10086D002003357FFE7802EF08800123D8FD524921
:10087D0085498043A08053A09F53A01FD203227FA0
:10088D00017802EF08800123D8FD42498549804354
:09089D00A08053A09F53A01F226C
:100BB600E5296401702BE52ED3953F4012434C1076
:100BC600854C8043A0A053A0BF53A01FD20C225334
:100BD6004CEF854C8043A0A053A0BF53A01FC20C6E
:100BE60022E510450F7018E51245117012434C109E
:100BF600854C8043A0A053A0BF53A01FD201223032
:100C0600011CC3E5109405E50F94004011534CEF09
:0F0C1600854C8043A0A053A0BF53A01FC2012252
:03006300020D810A
:100D8100C0E030B41B052DE52D7002052C30002C80
:100D910085333985343AC200753300753400801CBF
:100DA10020B4190534E5347002053320000E852C7A
:0F0DB10035852D36D200752C00752D00D0E0321F
:100FAC00438E0475D78875D6FF438E10D2AF43AFEE
:020FBC0004220D
:100CF100120EEBD28E309103308FFAC28E308F0AF2
:100D0100C28F753D00753E63802C209129D291AF31
:100D11008DEF754500F544AF8BEF4245E4AC44AD32
:100D2100451201717B967A43798B783C12006612E9
:0C0D310001AA8E3D8F3EE4F58BF58D226B
:0E0FBE00538EBF53890FE4F58BF58DC28F2241
:100EEB00E4F50BF50CD290120003C290120003052F
:100EFB000CE50C7002050BC39408E50B940040E560
:010F0B0022C3
:0600030000007F2ADFFE71
:0100090022D4
:03000B00020A9D49
:100A9D00C0E0C0F0C083C082C0D075D000C000C01F
:100AAD0001C002C003C004C005C006C007758000A8
:100ABD0043A0C053A0DF53A01FE54625E02453F803
:100ACD00E6FE08E625E0FFEE33FE74FD2FF5827499
:100ADD000D3EF583740193F58043A0E053A01F7F75
:100AED0001A846EF08800123D8FDF58043A0C0532F
:100AFD00A0DF53A01F0546E54664087002F54612B7
:100B0D00095CD007D006D005D004D003D002D001A7
:0D0B1D00D000D0D0D082D083D0F0D0E03214
:100F8300438E805389F0758A20758CD1C28DD28CA3
:050F9300D2AFD2A9223B
:10056300E56714602314700302065024026003023B
:1005730006A17F0F120F4A120EC9EF540F640F70BA
:10058300030206A1756701227F0F120F4A120EC9DB
:10059300EF540F640F6008120EC9EF540FF5097F73
:1005A300F0120F4A120EC9EF54F064F06008120EF5
:1005B300C9EF54F0F50AE509450AF508F47003029A
:1005C30006A1E5081203D0060D7706087B06037D16
:1005D30005FE7E0621B7061CBB0617BD0612BE0626
:1005E30035D70630DB062BDD0626DE0649E7064453
:1005F300EB063FED063AEE0000064C7566078049B0
:100603007566068044756605803F756604803A7595
:10061300660B803575660A8030756609802B7566B2
:1006230008802675660F802175660E801C75660D21
:10063300801775660C8012756613800D75661280BF
:10064300087566118003756610756702227F0F12A5
:100653000F4A120EC9EF540F640F603B7F0F120F46
:100663004A120EC9EF540F640F6008120EC9EF54FB
:100673000FF5097FF0120F4A120EC9EF54F064F020
:100683006008120EC9EF54F0F50AE509450AF508AA
:0E06930064EB700AD20622C206E4F567D208B4
:0106A1002236
:100F4A00EF543FF5B0EFC4131313540124FF92C4B6
:0C0F5A00EF5440C41313540324FF92C250
:010F66002268
:100EC900E4AFB0A2C433FEA2C2E433FDEEC43333AF
:100ED900335480FEEF543F4EFFEDC4333354C04FBB
:010EE900FF09
:010EEA0022E5
:100E2B007580FF43A08053A09F53A01F7580FF4385
:100E3B00A0E053A01FE4F58043A0C053A0DF53A054
:0D0E4B001FF58043A0A053A0BF53A01F229D
:100F0C00E4FDFCC3ED9FEC9E5015E4FBFA0BBB001B
:0F0F1C00010ABA03F8BB55F50DBD00010C80E4C6
:010F2B0022A3
:040F2C007F057E00BF
:100F3000EF1FAA0670011E4A600FE4FDEDC3940C7A
:090F40007480948050EA0D80F3E6
:010F49002285
:020E5800A907E8
:100E5A00E4FBEBC39408748094805012C294E913A3
:100E6A009294120F2CD294E9C313F90B80E47F05F4
:050E7A007E00020F30B4
:100EA600E4FBEBC39408748094805014C294ECC3A2
:100EB60013FCD294309403430480120F2C0B80E26F
:020EC600AF0477
:010EC8002207
:100E7F00C210D2947F0C7E00120F30C2947F507E2E
:100E8F0000120F30D2947F0A7E00120F30A294927C
:060E9F0010120F2CA2103E
:010EA500222A
:100C8D00120E7F7FCC120E587F44120E587FC87EF5
:100C9D0000120F30120E7F7FCC120E587FBE120E37
:100CAD0058120EA6A907120EA6EF540FFFE48F0ED1
:100CBD00F50DF50CF50BAE0DAD0CAC0B7808120364
:100CCD00BD8F0E8E0D8D0C8C0BAF01E50E4FF50EFD
:100CDD00E50DF50DE50CF50CE50BF50BAF0EAE0DB9
:030CED00AD0CFC4F
:010CF00022E1
:08095300060F0032003B001703
:100F6700E4FEEEC3940874809480500FC297EF1389
:0B0F770092A3EFC313FFD2970E80E798
:010F8200224C
:100F9800C29300C29700D29300120F67AF05120FD9
:040FA80067C2932267
:100DC000E4FDC29300C29700D29300120F67E4FFC4
:100DD000EFC39408748094805011C297EDC313FD43
:100DE00030A303430580D2970F80E5C29300C297DA
:0C0DF00000D29700C2A300D2A300AF0500
:010DFC0022D4
:100C2500750B00750C80E4FD7F8E120F98E4F50DB1
:100C3500F50EAB0EEB25E0240FF8E6FE08E6FF7C8B
:100C4500007D0A12023DEFC454F0FAEB25E0240FB3
:100C5500F8E6FE08E6FF7C007D0A12023DEA4DFD3E
:100C6500AF0C120F987402250CF50CE4350BF50B3F
:100C7500050EE50E7002050DC39403E50D940040C5
:080C8500B17D807F8E020F9803
:10000E00750B00750C81E4FBFAAF0C120DC08F82DC
:10001E00758300E583C4F854F0C868FEE582C454C5
:10002E000F48FF7C007D0A12022BE582540F2FFF32
:10003E00EC3EFEEB25E0240FF8A60608A607740298
:10004E00250CF50CE4350BF50B0BBB00010AEB642C
:04005E00034A70B52C
:01006200227B
:10006600EC4D6011E8497017ED33EC3304600DE494
:10007600FCFFFEFD22E933E8330470F80202161293
:1000860001E158046009E4CC248150062850090295
:10009600022028400302021DC0E0EB4A7044B980EA
:1000A60006D0E0FB02020CEF4E701CBD8008EBFF91
:1000B600EAFEE9FD80EBE98DF0A4FEE5F002014FD2
:1000C600E9CDF9EAFEEBFFEF89F0A4FCE5F0CE8975
:1000D600F0A42EFFE435F0CD89F0A42DFEE435F032
:1000E6008067EF4E7005BD80D780C3EF8BF0A4AC60
:1000F600F0EE8BF0A42CFCE435F0F8EF8AF0A42C9B
:10010600E5F038FCE433CB8DF0A42CFCE5F03BF8AD
:10011600EE8AF0A42CFCE5F038F8E433CF89F0A49D
:100126002CFCE5F038CF3400CE89F0A42FFFE5F0A3
:100136003EFEE433C98DF0A42EFEE5F039CD8AF0FB
:10014600A42FFFE5F03EFEE43DFD33D0E0FB500773
:100156000BBB000F020220EC2CFCEF33FFEE33FE4C
:06016600ED33FD0201F87B
:10016C0075F020800E75F010800575F0087D007E0E
:10017C00007F003392D530D5031203AFEC3340101F
:10018C00EF33FFEE33FEED33FDEC33FCD5F0ED2217
:0E019C00E5F0247EA2D513CC92E7CDCEFF2253
:1001AA00EDD2E7CD33EC3392D524814006E4FFFE4D
:1001BA00FDFC22FCE4CFCECDCC24E0501174FF80AC
:1001CA00EDC3CC13CCCD13CDCE13CECF13CF047049
:0701DA00F030D5DE0203AF97
:1001E100E9D2E7C933E833F892D5EDD2E7CD33EC64
:0701F10033FC5002B2D522DD
:1001F800EC30E7100FBF000C0EBE00080DBD000468
:100208000BEB6014A2D5EB13FCED92E7FD2274FF13
:10021800FCFDFEFF22E480F8A2D574FF13FC7D806C
:03022800E480EF80
:03000000020B2AC6
:0C0B2A00787FE4F6D8FD75816B020B713A
:10022B00EF8DF0A4A8F0CF8CF0A428CE8DF0A42EE7
:02023B00FE22A1
:10023D00BC000BBE0029EF8DF084FFADF022E4CCA5
:10024D00F875F008EF2FFFEE33FEEC33FCEE9DEC6E
:10025D00984005FCEE9DFE0FD5F0E9E4CEFD22EDB4
:10026D00F8F5F0EE8420D21CFEADF075F008EF2FFE
:10027D00FFED33FD4007985006D5F0F222C398FDEF
:05028D000FD5F0EA228C
:10029200E88FF0A4CC8BF0A42CFCE98EF0A42CFC0B
:1002A2008AF0EDA42CFCEA8EF0A4CDA8F08BF0A489
:1002B2002DCC3825F0FDE98FF0A42CCD35F0FCEBE8
:1002C2008EF0A4FEA9F0EB8FF0A4CFC5F02ECD39AD
:0F02D200FEE43CFCEAA42DCE35F0FDE43CFC221A
:1002E10075F008758200EF2FFFEE33FECD33CDCCD4
:1002F10033CCC58233C5829BED9AEC99E582984057
:100301000CF582EE9BFEED9AFDEC99FC0FD5F0D633
:10031100E4CEFBE4CDFAE4CCF9A88222B800C1B95D
:100321000059BA002DEC8BF084CFCECDFCE5F0CB9B
:10033100F97818EF2FFFEE33FEED33FDEC33FCEBD4
:1003410033FB10D703994004EB99FB0FD8E5E4F98F
:10035100FA227818EF2FFFEE33FEED33FDEC33FC7C
:10036100C933C910D7059BE99A4007EC9BFCE99A70
:10037100F90FD8E0E4C9FAE4CCFB2275F010EF2FB5
:10038100FFEE33FEED33FDCC33CCC833C810D707B5
:100391009BEC9AE899400AED9BFDEC9AFCE899F8F0
:0E03A1000FD5F0DAE4CDFBE4CCFAE4C8F92283
:100D3D00C2D5E830E70FB2D5E4C39BFBE49AFAE4E1
:100D4D0099F9E498F8EC30E717B2D5120D73120348
:100D5D001DE4C39BFBE49AFAE499F9E498F8800347
:100D6D0012031D30D50DE4C39FFFE49EFEE49DFDEF
:040D7D00E49CFC22D4
:0E03AF00C3E49FFFE49EFEE49DFDE49CFC225F
:1003BD00E8600FEFC333FFEE33FEED33FDEC33FC9E
:0303CD00D8F12242
:1003D000D083D082F8E4937012740193700DA3A3BC
:1003E00093F8740193F5828883E4737402936860D0
:0603F000EFA3A3A380DFD0
:100B36000206A2E493A3F8E493A34003F68001F22D
:100B460008DFF48029E493A3F85407240CC8C333C0
:100B5600C4540F4420C8834004F456800146F6DF8F
:100B6600E4800B01020408102040809008A6E47E71
:100B7600019360BCA3FF543F30E509541FFEE49384
:100B8600A360010ECF54C025E060A840B8E493A34B
:100B9600FAE493A3F8E493A3C8C582C8CAC583CA76
:100BA600F0A3C8C582C8CAC583CADFE9DEE780BE2E
:01095B00009B
:00000001FF
