:100BBD0000C000F900A400B000990092008200F876
:100BCD0000800090004000790024003000190012D0
:0E0BDD00000200780000001000FF00C6008C2F
:100A0D000151FF015200103D001400140014001498
:100A1D00001400140014001402370000012E00020F
:100A2D002A0014012500C100024F0000014E0002F2
:100A3D00260000C10502210000C103042F000000A3
:100A4D000001390002350000C10202230000014DF2
:100A5D001E013C14012900012800C101022C0000D7
:0A0A6D00C104023A00000233000049
:10099F000550E5507002054F6414454F7007F54F31
:1009AF00F550120ADC0527E5277002052664144569
:1009BF00267006F526F527D2050522E522700205D9
:1009CF0021646445217006F521F522D2030536E531
:1009DF003670020535FFAE35BE010ABFF407E4F5E8
:1009EF0035F536D202052DE52D7002052CFFAE2C04
:0E09FF00BE010ABF2C07E4F52CF52DD2042210
:10077000E52524FC700302082914700302081114F3
:10078000604C14600302087C30010AE54E6402707C
:1007900004154D800B200108E54E64027002153CE3
:1007A000AF4DEF3395E0FED3EF9400EE648094807C
:1007B0005003E4F54DAF3CEF3395E0FED3EF9400EA
:1007C000EE64809480400302087CE4F53C22300112
:1007D0000AE54E64027004054D800B200108E54EC9
:1007E00064027002053CAF4DEF3395E0FEC3EF9419
:1007F00063EE648094804003754D63AF3CEF3395A6
:10080000E0FEC3EF9463EE64809480406F753C63B8
:1008100022200109E54E64027003D2012230015CFE
:10082000E54E64027056C20122E54E6401700C85EB
:100830004D29853C28754E02C20122C3E53C6480E7
:10084000F8E54D6480985018754E0185294D85282E
:100850003C7FFE7803EF08800123D8FD52518010C1
:10086000754E017F017803EF08800123D8FD4251C6
:0D08700085518043A08053A09F53A01F22FC
:1005A100120BEB120A787F847E03120CD9120A789F
:1005B100E47B717A02F9F812024A8F328E318D3062
:1005C1008C2F120D66120D9F300005C200120770AC
:1005D100300505C205120399200303020762C20315
:1005E100120A78E47B717A02F9F812024A8F328E8C
:1005F100318D308C2F7BA07A86790178001202D55B
:10060100AC00AD01AE02AF03E47B107A27F9F8121A
:1006110002D5C0077BA07A8679017800AF32AE316E
:10062100AD30AC2F1202D5E47B0AFAF9F812024A76
:10063100D0E02FF539AF4DEF3395E0FED3E5399F8B
:10064100EE6480F874809840457FCC120D7B7FFE6C
:100651007800EF08800123D8FD525185518043A0D5
:100661008053A09F53A01F7F017801EF08800123D1
:10067100D8FD425185518043A08053A09F53A01FB4
:100681007F017802EF08800123D8FD020754AF4DA6
:10069100EF3395E0FED3E5399FEE6480F8748098DE
:1006A100505BAF3CEF3395E0FEFDFCAB32AA31A9C4
:1006B10030A82FC312037540447F99120D7B7FFE32
:1006C1007801EF08800123D8FD525185518043A064
:1006D1008053A09F53A01F7F017800EF0880012362
:1006E100D8FD425185518043A08053A09F53A01F44
:1006F1007F017802EF08800123D8FD8056AF3CEFDF
:100701003395E0FEC3E5399FEE6480F8748098501C
:10071100507F66120D7B7FFE7802EF08800123D89F
:10072100FD525185518043A08053A09F53A01F7F4C
:10073100017801EF08800123D8FD425185518043A2
:10074100A08053A09F53A01F7F017800EF08800174
:1007510023D8FD425185518043A08053A09F53A0CF
:0F0761001F2004030205C9C204120B3B0205C985
:100B3B00120D34D28E309103308FFAC28E308F0A61
:100B4B00C28F753A03753BE7802DAF8D7533008FE0
:100B5B0034E534753400F533AF8BEF4234E4AC3A03
:100B6B00AD3B1201197B967A43798B783C12000EC0
:0D0B7B001201528E3A8F3BE4F58BF58D226E
:0E0D9F00538EBF53890FE4F58BF58DC28F2262
:0600030000007F27DFFE74
:0100090022D4
:100D3400E4FEEEC3940874809480500DD2901200A7
:090D440003C2901200030E80E9C5
:010D4D002283
:10039900E54E14606914700302046C1470030204BE
:1003A900C9147003020527240460030205A0753DE2
:1003B90000753E14753F007540147541007542146F
:1003C900754300754414754500754614AE3AAF3B44
:1003D9007C007D641201F58E478F48AE3AAF3B7CB5
:1003E900007D641201F57E007F0ACFCDCFCECCCE41
:1003F9001201F58E498F4AAE3AAF3B02051B753D96
:1004090000753E15753F007540147541007542141D
:100419007543007544147545007546147547007594
:1004290048147BA07A8679017800AF32AE31AD30BD
:10043900AC2F1202D58E498F4A7BA07A8679017832
:1004490000AF32AE31AD30AC2F1202D5AC00AD01E8
:10045900AE02AF03E47B107A27F9F81202D58E4B6E
:100469008F4C22753D00753E16753F007540147519
:100479004100754214E54D75F00A1201D3FF339519
:10048900E0F5438F44E54D75F00A1201D3AFF0EF63
:100499003395E0F5458F46754700754814E53C7579
:1004A900F00A1201D3FF3395E0F5498F4AE53C750F
:1004B900F00A1201D3AFF0EF3395E0F54B8F4C22E0
:1004C900753D00753E15753F007540157541007500
:1004D9004215754300754415754500754615AE23DB
:1004E900AF247C007D641201F5EF240AF548E43E4F
:1004F900F547AE23AF247C007D641201F57E007FB1
:100509000ACFCDCFCECCCE1201F58E498F4AAE237C
:10051900AF247C007D0A1201F58C4B8D4C2275436A
:10052900007544017FFE7803EF08800123D8FD524E
:100539005185518043A08053A09F53A01F7F01780C
:1005490000EF08800123D8FD425185518043A080E6
:1005590053A09F53A01F7F017801EF08800123D882
:10056900FD425185518043A08053A09F53A01F7F16
:10057900017802EF08800123D8FD4251855180435B
:10058900A08053A09F53A01F5352EF85528053A0C0
:08059900A043A0BF53A01F22E4
:03000B0002087D6B
:10087D00C0E0C0F0C083C082C0D075D000C000C041
:10088D0001C002C003C004C005C006C007758000CA
:10089D0043A0C053A0DF53A01FAD38ED25E0243D8C
:1008AD00F8E6FE08E625E0FFEE33FE74BD2FF58277
:1008BD00740B3EF583740193F58043A0E053A01FA4
:1008CD007F01A805EF08800123D8FDF58043A0C066
:1008DD0053A0DF53A01F0538E538700205376408B3
:1008ED0045377004F537F53812099FD007D006D07B
:1008FD0005D004D003D002D001D000D0D0D082D00A
:06090D0083D0F0D0E032BF
:100ADC00E52E1460171460392402705230B00930BE
:100AEC00B10630B20320B346752E012220B0067534
:100AFC002507752E0220B106752506752E0220B22B
:100B0C0006752505752E0220B324752504752E0255
:100B1C002230B00930B10630B20320B30C740A2570
:0F0B2C002BF52BE4352AF52A22E4F52ED20022F0
:100D6600438E805389F0758ACD758CD4C28DD28C12
:050D7600D2AFD2A9225A
:100BEB007580FF43A08053A09F53A01F7580FF43C8
:100BFB00A0E053A01FE4F58043A0C053A0DF53A097
:0D0C0B001FF58043A0A053A0BF53A01F22DF
:100CD900E4FDFCC3ED9FEC9E5015E4FBFA0BBB0051
:0F0CE900010ABA03F8BB55F50DBD00010C80E4FC
:010CF80022D9
:040CF9007F057E00F5
:100CFD00EF1FAA0670011E4A600FE4FDEDC3940CB0
:090D0D007480948050EA0D80F31B
:010D160022BA
:020C4200A90700
:100C4400E4FBEBC39408748094805012C294E913BB
:100C54009294120CF9D294E9C313F90B80E47F0542
:050C64007E00020CFD02
:100CB600E4FBEBC39408748094805014C294ECC394
:100CC60013FCD294309403430480120CF90B80E297
:020CD600AF0469
:010CD80022F9
:100C6900C206D2947F0C7E00120CFDC2947F507E86
:100C790000120CFDD2947F0A7E00120CFDA2949200
:060C890006120CF9A206A0
:010C8F002242
:100A7800120C697FCC120C427F44120C427FC87E54
:100A880000120CFD120C697FCC120C427FBE120CB6
:100A980042120CB6A907120CB6EF540FFFE48F0BE5
:100AA800F50AF509F508AE0AAD09AC08780812038D
:100AB800868F0B8E0A8D098C08AF01E50B4FF50B5D
:100AC800E50AF50AE509F509E508F508AF0BAE0AE8
:030AD800AD09FC69
:010ADB0022F8
:040DAD00D2A07F2829
:080DB10000AE071FEE70F922ED
:0F0D9000D2A1120DADC2A17F28120DB1C2A022B7
:0C0DB900C2A1120DADD2A17F28020DB125
:020B8800AD07B7
:100B8A00E4FCECC39408748094805024C2A07F28AB
:100B9A00120DB1ED30E704D2A18002C2A17F281262
:100BAA000DB1D2A0ED25E0FD7F28120DB10C80D247
:020BBA00C2A0D7
:010BBC002216
:100C9000E4FCECC39408748094805017120DADED01
:100CA00025E0FD30A103430501C2A07F28120DB14C
:050CB0000C80DFAF0520
:010CB500221C
:0B0D1700120B88120D22AF03120B8894
:100D2200120DADA2A1E433FDC2A07F28120DB1AF16
:010D320005BB
:010D3300229D
:100D4E00C2A0EF24FF92A17F28120DB1120DADC2E9
:080D5E00A0D2A17F28020DB113
:100D7B00AB07120D907F90120B88120D227F401241
:050D8B000D17020DB977
:040C1800AB07AA0676
:100C1C00120D907F90120D17120DB9120D907F913D
:100C2C00120B88120D22120C90AD077F01120D4E83
:050C3C00120DB9AF0527
:010C41002290
:10000E00EC4D6011E8497017ED33EC3304600DE4EC
:10001E00FCFFFEFD22E933E8330470F80201BE1244
:10002E00018958046009E4CC248150062850090245
:10003E0001C82840030201C5C0E0EB4A7044B980F4
:10004E0006D0E0FB0201B4EF4E701CBD8008EBFF42
:10005E00EAFEE9FD80EBE98DF0A4FEE5F00200F783
:10006E00E9CDF9EAFEEBFFEF89F0A4FCE5F0CE89CD
:10007E00F0A42EFFE435F0CD89F0A42DFEE435F08A
:10008E008067EF4E7005BD80D780C3EF8BF0A4ACB8
:10009E00F0EE8BF0A42CFCE435F0F8EF8AF0A42CF3
:1000AE00E5F038FCE433CB8DF0A42CFCE5F03BF806
:1000BE00EE8AF0A42CFCE5F038F8E433CF89F0A4F6
:1000CE002CFCE5F038CF3400CE89F0A42FFFE5F0FC
:1000DE003EFEE433C98DF0A42EFEE5F039CD8AF054
:1000EE00A42FFFE5F03EFEE43DFD33D0E0FB5007CC
:1000FE000BBB000F0201C8EC2CFCEF33FFEE33FEFE
:06010E00ED33FD0201A02B
:1001140075F020800E75F010800575F0087D007E66
:10012400007F003392D530D503120367EC334010BF
:10013400EF33FFEE33FEED33FDEC33FCD5F0ED226F
:0E014400E5F0247EA2D513CC92E7CDCEFF22AB
:10015200EDD2E7CD33EC3392D524814006E4FFFEA5
:10016200FDFC22FCE4CFCECDCC24E0501174FF8004
:10017200EDC3CC13CCCD13CDCE13CECF13CF0470A1
:07018200F030D5DE02036737
:10018900E9D2E7C933E833F892D5EDD2E7CD33ECBC
:0701990033FC5002B2D52235
:1001A000EC30E7100FBF000C0EBE00080DBD0004C0
:1001B0000BEB6014A2D5EB13FCED92E7FD2274FF6C
:1001C000FCFDFEFF22E480F8A2D574FF13FC7D80C5
:0301D000E480EFD9
:03000000020913DF
:0C091300787FE4F6D8FD75815202095A85
:1001D300C2D530F707B2D563F0FF05F030E70CB2B4
:1001E300D5F4048463F0FF05F080018430D502F474
:0201F3000422E4
:1001F500BC000BBE0029EF8DF084FFADF022E4CCEE
:10020500F875F008EF2FFFEE33FEEC33FCEE9DECB6
:10021500984005FCEE9DFE0FD5F0E9E4CEFD22EDFC
:10022500F8F5F0EE8420D21CFEADF075F008EF2F46
:10023500FFED33FD4007985006D5F0F222C398FD37
:050245000FD5F0EA22D4
:10024A00E88FF0A4CC8BF0A42CFCE98EF0A42CFC53
:10025A008AF0EDA42CFCEA8EF0A4CDA8F08BF0A4D1
:10026A002DCC3825F0FDE98FF0A42CCD35F0FCEB30
:10027A008EF0A4FEA9F0EB8FF0A4CFC5F02ECD39F5
:0F028A00FEE43CFCEAA42DCE35F0FDE43CFC2262
:1002990075F008758200EF2FFFEE33FECD33CDCC1C
:1002A90033CCC58233C5829BED9AEC99E58298409F
:1002B9000CF582EE9BFEED9AFDEC99FC0FD5F0D67C
:1002C900E4CEFBE4CDFAE4CCF9A88222B800C1B9A6
:1002D9000059BA002DEC8BF084CFCECDFCE5F0CBE4
:1002E900F97818EF2FFFEE33FEED33FDEC33FCEB1D
:1002F90033FB10D703994004EB99FB0FD8E5E4F9D8
:10030900FA227818EF2FFFEE33FEED33FDEC33FCC4
:10031900C933C910D7059BE99A4007EC9BFCE99AB8
:10032900F90FD8E0E4C9FAE4CCFB2275F010EF2FFD
:10033900FFEE33FEED33FDCC33CCC833C810D707FD
:100349009BEC9AE899400AED9BFDEC9AFCE899F838
:0E0359000FD5F0DAE4CDFBE4CCFAE4C8F922CB
:0E036700C3E49FFFE49EFEE49DFDE49CFC22A7
:10037500EB9FF5F0EA9E42F0E99D42F0E89C45F0DE
:010385002255
:10038600E8600FEFC333FFEE33FEED33FDEC33FCD5
:03039600D8F12279
:10091F000205A1E493A3F8E493A34003F68001F248
:10092F0008DFF48029E493A3F85407240CC8C333D9
:10093F00C4540F4420C8834004F456800146F6DFA8
:10094F00E4800B0102040810204080900A0DE47E21
:10095F00019360BCA3FF543F30E509541FFEE4939D
:10096F00A360010ECF54C025E060A840B8E493A364
:10097F00FAE493A3F8E493A3C8C582C8CAC583CA8F
:10098F00F0A3C8C582C8CAC583CADFE9DEE780BE47
:010A7700007E
:00000001FF
