:1008500000C000F900A400B000990092008200F8E6
:100860000080009000400079002400300019001240
:0C087000000200780000001000FF00BF34
:10062D000132FF10390014001400140014001400DE
:10063D001400140014012F00014A00014900023377
:10064D000014C102012800012E01012700C105027D
:10065D00230000C104043500000000024D0000021B
:10066D00300000012B01016300022900000225006A
:10067D0000014C00014B00022C000002210000C1C2
:05068D0003C100C101E2
:100485000528E52864147005F5281206FF0527E5FB
:100495002764147004F527D2050524E524700205A8
:1004A50023FFAE23BE030ABF8407E4F523F524D258
:1004B50004054EE54E7002054DFFAE4DBE010DBF64
:1004C500F40AE4F54DF54EF5307531010522E522C6
:1004D50070020521FFAE21BE010ABFF407E4F52134
:1004E500F522D203E52E64027024AF2BFE7C037D3A
:1004F500E812000E052AE52A70020529B5070FE561
:0F05050029B5060AE4F529F52AF5257526012200
:1001A50012082312069B7F527E031208ED12069B4E
:1001B500E47B717A02F9F81200758F388E378D3627
:1001C5008C351209471207551207E7300205C2029E
:1001D5001203E9300505C2051202C7300417C2042F
:1001E50012069BE47B717A02F9F81200758F388E3E
:1001F500378D368C35E531640145307007F530F5BE
:10020500311207E7E526640145257069F525F526D0
:100215007BA07A867901F8AF38AE37AD36AC3512AA
:100225000100AC00AD01AE02AF03E47B107A27F903
:10023500F8120100C006C0077BA07A867901780014
:10024500AF38AE37AD36AC35120100E47B0AFAF9AA
:10025500F8120075D0E02FFFD0E03EFEE54C25E01A
:10026500244FF8A60608A607054CE54C640A700558
:10027500752E03D2002003030201D02000030201E2
:10028500D0C20320011ED2017FFE7800EF08800155
:1002950023D8FD523285328043A08053A09F53A0BE
:1002A5001F0201D0C2017F017800EF08800123D829
:1002B500FD423285328043A08053A09F53A01F0288
:0202C50001D066
:1003E900AF497E00EF64077011F549E52E6403609B
:1003F90003020484752E01F54B22EF64064E702D1D
:10040900F5497F01F80408800123D8FD423285327D
:100419008043A08053A09F53A01FC200E52E640310
:100429007059054BE54B640A7051F54B22AF497E73
:1004390000EF6405700EF549E52E6401703D752ED7
:1004490002F54C22EF64044E7031F549E52E640142
:100459007029AF2BFEEF64017004752B0522EF6440
:10046900054E7004752B1E22EF641E4E7004752B09
:0C0479003C22EF643C4E7003752B012206
:1002C700E52E24FE604A147003020395240260039E
:1002D7000203E8753900753A14753B00753C1475CF
:1002E7003D00753E14753F00754014754100754219
:1002F70014754300754415E52B75F00A84754500A0
:10030700F546E52B75F00A84AFF07547008F482254
:10031700AE12AF137C007D0A1200208E398F3AAEE1
:1003270012AF137C007D0A1200208C3B8D3CAE106F
:10033700AF117C007D0A1200208E3F8F40AE10AFB8
:10034700117C007D0A1200208C418D42AE0EAF0F4A
:100357007C007D0A1200208E458F46AE0EAF0F7CC3
:10036700007D0A1200208C478D48E50F20E00D75AF
:100377003D00753E1575430075441522E50F30E0C5
:1003870060753D00753E1475430075441422753938
:1003970000753A15E4F53BF53CE54B75F00A84AF7B
:1003A700F0753D008F3E753F00754014754100752F
:1003B7004214754300754415E54B25E0244FF8E6D4
:1003C700FA08E6FB7C007D0AFFAE021200208E458C
:1003D7008F467C007D0AAF03AE021200208C478D4A
:0203E7004822AA
:1006FF00E54A1460171460302402704930B0093095
:10070F00B10630B20320B33D754A012220B0037504
:10071F00490720B10375490620B20375490520B377
:10072F0003754904754A022230B00930B10630B260
:10073F000320B30C740A2534F534E43533F5332232
:06074F00E4F54AD202228B
:03000B00020514D7
:10051400C0E0C0F0C083C082C0D075D000C000C0AD
:1005240001C002C003C004C005C006C00775800036
:1005340043A0C053A0DF53A01FE52F25E02439F8C2
:10054400E6FE08E625E0FFEE33FE74502FF58274D4
:10055400083EF583740193F58043A0E053A01F7F08
:1005640001A82FEF08800123D8FDF58043A0C053D4
:10057400A0DF53A01F052FE52F64087002F52F128A
:100584000485D007D006D005D004D003D002D00112
:0D059400D000D0D0D082D083D0F0D0E032A3
:100823007580FF43A08053A09F53A01F7580FF4393
:10083300A0E053A01FE4F58043A0C053A0DF53A062
:0D0843001FF58043A0A053A0BF53A01F22AB
:10094700438E805389F0758ACD758CD4C28DD28C35
:05095700D2AFD2A9227D
:1008ED00E4FDFCC3ED9FEC9E5015E4FBFA0BBB0041
:0F08FD00010ABA03F8BB55F50DBD00010C80E4EC
:01090C0022C8
:04090D007F057E00E4
:10091100EF1FAA0670011E4A600FE4FDEDC3940C9F
:090921007480948050EA0D80F30B
:01092A0022AA
:02087C00A907CA
:10087E00E4FBEBC39408748094805012C294E91385
:10088E00929412090DD294E9C313F90B80E47F05FB
:05089E007E00020911BB
:1008CA00E4FBEBC39408748094805014C294ECC384
:1008DA0013FCD29430940343048012090D0B80E276
:0208EA00AF0459
:0108EC0022E9
:1008A300C206D2947F0C7E00120911C2947F507E3F
:1008B30000120911D2947F0A7E00120911A29492A8
:0608C3000612090DA20659
:0108C900220C
:10069B001208A37FCC12087C7F4412087C7FC87E93
:1006AB00001209111208A37FCC12087C7FBE12081E
:1006BB007C1208CAA9071208CAEF540FFFE48F1760
:1006CB00F516F515F514AE16AD15AC147808120128
:1006DB00928F178E168D158C14AF01E5174FF517EA
:1006EB00E516F516E515F515E514F514AF17AE1669
:0306FB00AD15FC3E
:0106FE0022D9
:0806920006080032003B0017CE
:10092B00E4FEEEC3940874809480500FC297EF13CB
:0B093B0092A3EFC313FFD2970E80E7DA
:01094600228E
:10095C00C29300C29700D2930012092BAF05120963
:04096C002BC29322E5
:1007AA00E4FDC29300C29700D2930012092BE4FF22
:1007BA00EFC39408748094805011C297EDC313FD5F
:1007CA0030A303430580D2970F80E5C29300C297F6
:0C07DA0000D29700C2A300D2A300AF051C
:0107E60022F0
:10075500751480E4FD7F8E12095CE4FBEBC3940302
:10076500748094805038EB25E02408F8E6FE08E60E
:10077500FF7C007D0A120020EFC454F0FAEB25E05F
:100785002408F8E6FE08E6FF7C007D0A120020EA50
:100795004DFDAF1412095C051405140B80BE7D8058
:0507A5007F8E02095CDB
:1007E7007C81E4FBEBC3940374809480502DAF04A9
:1007F7001207AAAD07EDC4540F75F00AA4FFED5414
:100807000F7583002FFFE58335F0FEEB25E0240EFF
:0B081700F8A60608A6070C0C0B80C911
:0108220022B3
:030000000205A155
:0C05A100787FE4F6D8FD7581630205E860
:10000E00EF8DF0A4A8F0CF8CF0A428CE8DF0A42E06
:02001E00FE22C0
:10002000BC000BBE0029EF8DF084FFADF022E4CCC4
:10003000F875F008EF2FFFEE33FEEC33FCEE9DEC8D
:10004000984005FCEE9DFE0FD5F0E9E4CEFD22EDD3
:10005000F8F5F0EE8420D21CFEADF075F008EF2F1D
:10006000FFED33FD4007985006D5F0F222C398FD0E
:050070000FD5F0EA22AB
:10007500E88FF0A4CC8BF0A42CFCE98EF0A42CFC2A
:100085008AF0EDA42CFCEA8EF0A4CDA8F08BF0A4A8
:100095002DCC3825F0FDE98FF0A42CCD35F0FCEB07
:1000A5008EF0A4FEA9F0EB8FF0A4CFC5F02ECD39CC
:0F00B500FEE43CFCEAA42DCE35F0FDE43CFC2239
:1000C40075F008758200EF2FFFEE33FECD33CDCCF3
:1000D40033CCC58233C5829BED9AEC99E582984076
:1000E4000CF582EE9BFEED9AFDEC99FC0FD5F0D653
:1000F400E4CEFBE4CDFAE4CCF9A88222B800C1B97D
:100104000059BA002DEC8BF084CFCECDFCE5F0CBBA
:10011400F97818EF2FFFEE33FEED33FDEC33FCEBF3
:1001240033FB10D703994004EB99FB0FD8E5E4F9AE
:10013400FA227818EF2FFFEE33FEED33FDEC33FC9B
:10014400C933C910D7059BE99A4007EC9BFCE99A8F
:10015400F90FD8E0E4C9FAE4CCFB2275F010EF2FD4
:10016400FFEE33FEED33FDCC33CCC833C810D707D4
:100174009BEC9AE899400AED9BFDEC9AFCE899F80F
:0E0184000FD5F0DAE4CDFBE4CCFAE4C8F922A2
:10019200E8600FEFC333FFEE33FEED33FDEC33FCCB
:0301A200D8F1226F
:1005AD000201A5E493A3F8E493A34003F68001F2BE
:1005BD0008DFF48029E493A3F85407240CC8C3334F
:1005CD00C4540F4420C8834004F456800146F6DF1E
:1005DD00E4800B010204081020408090062DE47E7B
:1005ED00019360BCA3FF543F30E509541FFEE49313
:1005FD00A360010ECF54C025E060A840B8E493A3DA
:10060D00FAE493A3F8E493A3C8C582C8CAC583CA04
:10061D00F0A3C8C582C8CAC583CADFE9DEE780BEBC
:01069A00005F
:00000001FF
