:1008780000C000F900A400B000990092008200F8BE
:100888000080009000400079002400300019001218
:0C089800000200780000001000FF00BF0C
:100694000131FF013200012F00012C00023300144C
:1006A400C1020227000001300010350014001400BC
:1006B4001400140014001400140014012B0102236C
:1006C4000000C105022D0000C10102210000022921
:1006D4000000014532C103C10602250000024600A4
:0506E40000C104C1008B
:10062A000528E52870020527641445277007F52771
:10063A00F5281206F20524E52470020523646445B0
:10064A00237006F523F524D205052EE52E70020542
:10065A002D6414452D7006F52DF52ED2010547E5BA
:10066A004770020546FFAE46BE010ABFF407E4F52D
:10067A0046F547D2040526E5267002052564C845D5
:0A068A00257006F525F526D206229C
:1005AD0012084B1209B87F011209897529008F2A8B
:1005BD007F057E001208CA052AE52A70020529FD6D
:1005CD007F011209A17F057E001208CA1207481289
:1005DD0007DA7F017E001208CA300505C205120335
:1005ED00E4300205C20212023630011FC2017F0340
:1005FD00120971AC07E412011E7B147AAE79C7782B
:10060D003E12000E1201528E218F22300405C204BB
:0D061D001207DA3006BCC20612031980B5C0
:1003E400E52B24FE606D046003020493AE12AF1388
:1003F4007C007D0A1201D38E358F36AE12AF137C8A
:10040400007D0A1201D38C378D38753900753A1581
:10041400AE10AF117C007D0A1201D38E3B8F3CAE2F
:1004240010AF117C007D0A1201D38C3D8D3E753FC7
:1004340000754014AE21AF227C007D0A1201D38ED8
:10044400418F42AE21AF227C007D0A1201D38C433E
:100454008D44227535007536157537007538157558
:100464003900753A14753B00753C14753D00753EB2
:1004740014753F00754014E54575F00A8475410014
:10048400F542E54575F00A84AFF07543008F4422C8
:100319002003507FFE7800EF08800123D8FD523179
:1003290085318043A08053A09F53A01F7F0178018E
:10033900EF08800123D8FD423185318043A08053E5
:10034900A09F53A01FC3E5229545E52194004005D0
:100359005332EF800343321085328043A0A053A06B
:10036900BF802F7FFE7801EF08800123D8FD52312D
:1003790085318043A08053A09F53A01F7F0178003F
:10038900EF08800123D8FD423185318043A0805395
:10039900A09F53A01F200029C3E5229545E521947C
:1003A90000500F7FFE7807EF08800123D8FD5231F6
:1003B900801C7F017807EF08800123D8FD42318036
:1003C9000D7F017807EF08800123D8FD423185317F
:0B03D9008043A08053A09F53A01F2270
:10023600E52C6407700F200304D203800530030207
:10024600C203E4F52C200345E52C64067018E52B63
:100256006402700C752B01AD457F021209A1800363
:10026600752B02E4F52CE52C6405700AE52B640277
:1002760070040545F52CE52C64046003020318E5BB
:100286002B640260030203181545F52C2220002971
:10029600C3E5229545E5219400500F7FFE7807EFD0
:1002A60008800123D8FD5231801C7F017807EF08B2
:1002B600800123D8FD4231800D7F017807EF088049
:1002C6000123D8FD423185318043A08053A09F533E
:1002D600A01FE52C6406700C200004D2008002C228
:1002E60000E4F52CE52C640570114332108532804C
:1002F60043A0A053A0BF53A01FF52CE52C640470A7
:10030600115332EF85328043A0A053A0BF53A01FE4
:03031600F52C22A1
:03000B0002049458
:10049400C0E0C0F0C083C082C0D075D000C000C02E
:1004A40001C002C003C004C005C006C007758000B7
:1004B40043A0C053A0DF53A01FE53025E02435F846
:1004C400E6FE08E625E0FFEE33FE74782FF582742D
:1004D400083EF583740193F58043A0E053A01F7F89
:1004E40001A830EF08800123D8FDF58043A0C05354
:1004F400A0DF53A01F0530E53064087002F5301208
:10050400062AD007D006D005D004D003D002D001EB
:0D051400D000D0D0D082D083D0F0D0E03223
:1009B800438E805389F0758ACD758CD4C28DD28CC4
:0509C800D2AFD2A9220C
:10084B007580FF43A08053A09F53A01F7580FF436B
:10085B00A0E053A01FE4F58043A0C053A0DF53A03A
:0D086B001FF58043A0A053A0BF53A01F2283
:1006F200E52F1460171460302402704930B00930BD
:10070200B10630B20320B33D752F012220B003752C
:100712002C0720B103752C0620B203752C0520B3DB
:1007220003752C04752F022230B00930B10630B2A5
:100732000320B30C740A2534F534E43533F533223F
:06074200E4F52FD20222B3
:1008CA00E4FDFCC3ED9FEC9E5015E4FBFA0BBB0064
:0F08DA00010ABA03F8BB55F50DBD00010C80E40F
:0108E90022EC
:04093F00D2A07F05BE
:10094300000000000000000000000000000000AEF6
:06095300071FEE70EB220D
:0F09F600D2A112093FC2A17F05120943C2A0225C
:100907001208161208F51208A4AD077F011209593B
:0C091700C2A112093FD2A17F05020943D2
:02081600AD072C
:10081800E4FCECC39408748094805024C2A07F0543
:10082800120943ED30E704D2A18002C2A17F05126C
:100838000943D2A0ED25E0FD7F051209430C80D2C3
:02084800C2A04C
:01084A00228B
:1008A400E4FCECC3940874809480501712093FED63
:1008B40025E0FD30A103430501C2A07F05120943D1
:0508C4000C80DFAF0510
:0108C900220C
:0B08EA001208161208F5AF03120816E2
:1008F50012093FA2A1E433FDC2A07F05120943AF4F
:0109050005EC
:0109060022CE
:10095900C2A0EF24FF92A17F0512094312093FC2E9
:08096900A0D2A17F05020943A1
:1009CD00AB071209F67F901208161208F57F401238
:0509DD0008EA02091701
:02097100AB07D2
:100973001209F67F901208EA1209171209F67F91FD
:05098300120907AF0599
:01098800224C
:1009A100AB05AA071209F67FA01208161208F5AFC7
:0709B100021208EA02091717
:02098900AB07BA
:10098B001209F67FA01208EA1209171209F67FA1C5
:05099B00120907AF0581
:0109A0002234
:0806E90006080000001E0008D5
:10092300E4FEEEC3940874809480500FC297EF13D3
:0B09330092A3EFC313FFD2970E80E7E2
:01093E002296
:1009E200C29300C29700D29300120923AF051209E5
:0409F20023C2932267
:10079D00E4FDC29300C29700D29300120923E4FF37
:1007AD00EFC39408748094805011C297EDC313FD6C
:1007BD0030A303430580D2970F80E5C29300C29703
:0C07CD0000D29700C2A300D2A300AF0529
:0107D90022FD
:10074800751480E4FD7F8E1209E2E4FBEBC3940389
:10075800748094805038EB25E02408F8E6FE08E61B
:10076800FF7C007D0A1201D3EFC454F0FAEB25E0B8
:100778002408F8E6FE08E6FF7C007D0A1201D3EAA9
:100788004DFDAF141209E2051405140B80BE7D80DF
:050798007F8E0209E262
:1007DA007C81E4FBEBC3940374809480502DAF04B6
:1007EA0012079DAD07EDC4540F75F00AA4FFED542E
:1007FA000F7583002FFFE58335F0FEEB25E0240E0D
:0B080A00F8A60608A6070C0C0B80C91E
:0108150022C0
:10000E00EC4D6011E8497017ED33EC3304600DE4EC
:10001E00FCFFFEFD22E933E8330470F80201BE1244
:10002E00018958046009E4CC248150062850090245
:10003E0001C82840030201C5C0E0EB4A7044B980F4
:10004E0006D0E0FB0201B4EF4E701CBD8008EBFF42
:10005E00EAFEE9FD80EBE98DF0A4FEE5F00200F783
:10006E00E9CDF9EAFEEBFFEF89F0A4FCE5F0CE89CD
:10007E00F0A42EFFE435F0CD89F0A42DFEE435F08A
:10008E008067EF4E7005BD80D780C3EF8BF0A4ACB8
:10009E00F0EE8BF0A42CFCE435F0F8EF8AF0A42CF3
:1000AE00E5F038FCE433CB8DF0A42CFCE5F03BF806
:1000BE00EE8AF0A42CFCE5F038F8E433CF89F0A4F6
:1000CE002CFCE5F038CF3400CE89F0A42FFFE5F0FC
:1000DE003EFEE433C98DF0A42EFEE5F039CD8AF054
:1000EE00A42FFFE5F03EFEE43DFD33D0E0FB5007CC
:1000FE000BBB000F0201C8EC2CFCEF33FFEE33FEFE
:06010E00ED33FD0201A02B
:1001140075F020800E75F010800575F0087D007E66
:10012400007F003392D530D503120228EC334010FF
:10013400EF33FFEE33FEED33FDEC33FCD5F0ED226F
:0E014400E5F0247EA2D513CC92E7CDCEFF22AB
:10015200EDD2E7CD33EC3392D524814006E4FFFEA5
:10016200FDFC22FCE4CFCECDCC24E0501174FF8004
:10017200EDC3CC13CCCD13CDCE13CECF13CF0470A1
:07018200F030D5DE02022877
:10018900E9D2E7C933E833F892D5EDD2E7CD33ECBC
:0701990033FC5002B2D52235
:1001A000EC30E7100FBF000C0EBE00080DBD0004C0
:1001B0000BEB6014A2D5EB13FCED92E7FD2274FF6C
:1001C000FCFDFEFF22E480F8A2D574FF13FC7D80C5
:0301D000E480EFD9
:03000000020521D5
:0C052100787FE4F6D8FD7581470205687C
:1001D300BC000BBE0029EF8DF084FFADF022E4CC10
:1001E300F875F008EF2FFFEE33FEEC33FCEE9DECD9
:1001F300984005FCEE9DFE0FD5F0E9E4CEFD22ED1F
:10020300F8F5F0EE8420D21CFEADF075F008EF2F68
:10021300FFED33FD4007985006D5F0F222C398FD59
:050223000FD5F0EA22F6
:0E022800C3E49FFFE49EFEE49DFDE49CFC22E7
:10052D000205ADE493A3F8E493A34003F68001F232
:10053D0008DFF48029E493A3F85407240CC8C333CF
:10054D00C4540F4420C8834004F456800146F6DF9E
:10055D00E4800B0102040810204080900694E47E94
:10056D00019360BCA3FF543F30E509541FFEE49393
:10057D00A360010ECF54C025E060A840B8E493A35A
:10058D00FAE493A3F8E493A3C8C582C8CAC583CA85
:10059D00F0A3C8C582C8CAC583CADFE9DEE780BE3D
:0106F1000008
:00000001FF
