:1006080000C000F900A400B000990092008200F830
:10061800008000900040007900240030001900128A
:0A062800000200780000001000FF3F
:10053800012CFF102F0014001400140014001400E4
:100548001400140014012B00014000013F00022494
:100558000000022D0014C100012801012300C1027E
:0E05680002210000C10102260000022900004D
:100577000525E52570020524641445247007F52434
:10058700F52512025C0523E52364147004F523D2D4
:10059700020522E52270020521FFAE21BE010ABF36
:0A05A7002C07E4F521F522D2012211
:1005DE001205B17F017E001206751206B21206C711
:1005EE00300005C2001206D5300205C20212048187
:0A05FE003001EDC2011204EB80E6AB
:0906D500E53F64077002F53F22C5
:10048100E528147064E53F75F00A84752F00F53096
:10049100E53F75F00A84AFF07531008F3275330096
:1004A100753414753500753614753700753814AE0A
:1004B10026AF277C007D641201D38E398F3AAE2698
:1004C100AF277C007D641201D37E007F0ACFCDCFA0
:1004D100CECCCE1201D38E3B8F3CAE26AF277C0013
:0A04E1007D0A1201D38C3D8D3E22EE
:1004EB00120654D28E309103308FFAC28E308F0A9F
:1004FB00C28F7526037527E7802DAF8D7529008F69
:10050B002AE52A752A00F529AF8BEF422AE4AC299C
:10051B00AD2A1201197B967A43798B783C12000E27
:0D052B001201528E268F27E4F58BF58D22EC
:10065400E4F50AF50BD290120003C29012000305D0
:100664000BE50B7002050AC39408E50A940040E503
:010674002263
:0600030000007F2FDFFE6C
:0100090022D4
:0E06C700538EBF53890FE4F58BF58DC28F2241
:03000B0002036885
:10036800C0E0C0F0C083C082C0D075D000C000C05B
:1003780001C002C003C004C005C006C007758000E4
:1003880043A0C053A0DF53A01FE52B25E0242FF87E
:10039800E6FE08E625E0FFEE33FE74082FF58274CA
:1003A800063EF583740193F58043A0E053A01F7FB8
:1003B80001A82BEF08800123D8FDF58043A0C05386
:1003C800A0DF53A01F052BE52B64087002F52B1244
:1003D8000577D007D006D005D004D003D002D001CD
:0D03E800D000D0D0D082D083D0F0D0E03251
:10025C00E540146023147003020347240260030278
:10026C0003677F0F120695120632EF540F640F705E
:10027C0003020367754001227F0F120695120632A6
:10028C00EF540F640F6008120632EF540FF5087F1D
:10029C00F0120695120632EF54F064F06008120664
:1002AC0032EF54F0F509E5084509FFF47003020339
:1002BC0067EF12023603047702FF7B02FA7D02F528
:1002CC007E0318B70313BB030EBD0309BE032CD763
:1002DC000327DB0322DD031DDE0340E7033BEB03B7
:1002EC0036ED0331EE00000343753F078049753F3F
:1002FC00068044753F05803F753F04803A753F0B7F
:10030C008035753F0A8030753F09802B753F08801A
:10031C0026753F0F8021753F0E801C753F0D801791
:10032C00753F0C8012753F13800D753F1280087558
:10033C003F118003753F10754002227F0F12069506
:10034C00120632EF540F640F600C740A252EF52E32
:0B035C00E4352DF52D22E4F540D20021
:010367002273
:10069500EF543FF5B0EFC4131313540124FF92C474
:0C06A500EF5440C41313540324FF92C20E
:0106B1002226
:10063200E4AFB0A2C233FEA2C4E433FDEEC433334E
:1006420054C0FEEF543F4EFFEDC433333354804F5A
:01065200FFA8
:010653002284
:1006B200438E805389F0758A20758CD1C28DD28C7D
:0506C200D2AFD2A92215
:1005B1007580FF43A08053A09F53A01F7580FF4308
:1005C100A0E053A01FE4F58043A0C053A0DF53A0D7
:0D05D1001FF58043A0A053A0BF53A01F2220
:10067500E4FDFCC3ED9FEC9E5015E4FBFA0BBB00BB
:0F068500010ABA03F8BB55F50DBD00010C80E466
:010694002243
:10000E00EC4D6011E8497017ED33EC3304600DE4EC
:10001E00FCFFFEFD22E933E8330470F80201BE1244
:10002E00018958046009E4CC248150062850090245
:10003E0001C82840030201C5C0E0EB4A7044B980F4
:10004E0006D0E0FB0201B4EF4E701CBD8008EBFF42
:10005E00EAFEE9FD80EBE98DF0A4FEE5F00200F783
:10006E00E9CDF9EAFEEBFFEF89F0A4FCE5F0CE89CD
:10007E00F0A42EFFE435F0CD89F0A42DFEE435F08A
:10008E008067EF4E7005BD80D780C3EF8BF0A4ACB8
:10009E00F0EE8BF0A42CFCE435F0F8EF8AF0A42CF3
:1000AE00E5F038FCE433CB8DF0A42CFCE5F03BF806
:1000BE00EE8AF0A42CFCE5F038F8E433CF89F0A4F6
:1000CE002CFCE5F038CF3400CE89F0A42FFFE5F0FC
:1000DE003EFEE433C98DF0A42EFEE5F039CD8AF054
:1000EE00A42FFFE5F03EFEE43DFD33D0E0FB5007CC
:1000FE000BBB000F0201C8EC2CFCEF33FFEE33FEFE
:06010E00ED33FD0201A02B
:1001140075F020800E75F010800575F0087D007E66
:10012400007F003392D530D503120228EC334010FF
:10013400EF33FFEE33FEED33FDEC33FCD5F0ED226F
:0E014400E5F0247EA2D513CC92E7CDCEFF22AB
:10015200EDD2E7CD33EC3392D524814006E4FFFEA5
:10016200FDFC22FCE4CFCECDCC24E0501174FF8004
:10017200EDC3CC13CCCD13CDCE13CECF13CF0470A1
:07018200F030D5DE02022877
:10018900E9D2E7C933E833F892D5EDD2E7CD33ECBC
:0701990033FC5002B2D52235
:1001A000EC30E7100FBF000C0EBE00080DBD0004C0
:1001B0000BEB6014A2D5EB13FCED92E7FD2274FF6C
:1001C000FCFDFEFF22E480F8A2D574FF13FC7D80C5
:0301D000E480EFD9
:030000000203F503
:0C03F500787FE4F6D8FD75814002043CDE
:1001D300BC000BBE0029EF8DF084FFADF022E4CC10
:1001E300F875F008EF2FFFEE33FEEC33FCEE9DECD9
:1001F300984005FCEE9DFE0FD5F0E9E4CEFD22ED1F
:10020300F8F5F0EE8420D21CFEADF075F008EF2F68
:10021300FFED33FD4007985006D5F0F222C398FD59
:050223000FD5F0EA22F6
:0E022800C3E49FFFE49EFEE49DFDE49CFC22E7
:10023600D083D082F8E4937012740193700DA3A357
:1002460093F8740193F5828883E47374029368606B
:06025600EFA3A3A380DF6B
:100401000205DEE493A3F8E493A34003F68001F22E
:1004110008DFF48029E493A3F85407240CC8C333FC
:10042100C4540F4420C8834004F456800146F6DFCB
:10043100E4800B0102040810204080900538E47E1E
:10044100019360BCA3FF543F30E509541FFEE493C0
:10045100A360010ECF54C025E060A840B8E493A387
:10046100FAE493A3F8E493A3C8C582C8CAC583CAB2
:10047100F0A3C8C582C8CAC583CADFE9DEE780BE6A
:010576000084
:00000001FF
